:100000000C9434000C9451000C9451000C94510049
:100010000C9451000C9451000C9451000C9451001C
:100020000C9451000C9451000C9451000C9451000C
:100030000C9451000C9451000C9451000C945100FC
:100040000C9451000C9451000C9451000C945100EC
:100050000C9451000C9451000C9451000C945100DC
:100060000C9451000C94510011241FBECFEFD8E026
:10007000DEBFCDBF11E0A0E0B1E0ECE6F8E102C0E8
:1000800005900D92AE36B107D9F721E0AEE6B1E0AA
:1000900001C01D92AF36B207E1F70E9475040C94BF
:1000A000340C0C94000094EA9093BC009091BC0036
:1000B0009923E2F79091B900969596959695292FF8
:1000C0002A95223038F0903009F42AC0973009F48C
:1000D00025C028C09DEE803009F49CEE9093BB00B3
:1000E00084E88093BC008091BC008823E2F7909163
:1000F000B900969596959695903091F085E093305D
:1001000081F0993031F0973049F0983051F09430C7
:1001100049F484E98093BC0081E00895812D08951D
:1001200083E0089584E00895DC016A0F7B1F84E872
:10013000A617B707E1F09C919093BB008093BC0099
:100140009091BC009923E2F711969091B900969591
:1001500096959695953061F3903069F0973049F017
:10016000963059F484E98093BC0082E0089585E0DC
:100170000895812D089583E0089584E00895CF9235
:10018000DF92EF92FF920F931F937A016B018C0124
:10019000812D0E945300853009F04CC061E070E071
:1001A000C8010E949400853009F044C081E00E949B
:1001B0005300853009F03EC0D6018D01F7010E0FC6
:1001C0001F1F3197BF0180E090E024E834ECA017B6
:1001D000B10709F427C0AB018417950739F42093C0
:1001E000BC004091BC004423E2F706C03093BC0041
:1001F0004091BC004423E2F74091B90046954695F2
:100200004695542F5A50523038F40196FD011196FC
:100210004091BB004083DBCF403049F0473049F488
:10022000812D08C084E98093BC0085E003C083E091
:1002300001C084E01F910F91FF90EF90DF90CF906D
:100240000895DC016A0F7B1FA617B70751F08C9148
:100250009091C00090729030D9F38093C6001196AF
:10026000F3CF08950F931F93CF93DF93CDB7DEB7EE
:1002700023970FB6F894DEBF0FBECDBF8C0180E090
:1002800090E09A8389836B83CE010396BE016F5FF2
:100290007F4F42E050E00E94BF0089819A81F801BF
:1002A00010829283818323960FB6F894DEBF0FBE2F
:1002B000CDBFDF91CF911F910F9108952F923F9263
:1002C0004F925F926F927F928F929F92AF92BF9266
:1002D000CF92DF92EF92FF920F931F93CF93DF9312
:1002E000CDB7DEB76E970FB6F894DEBF0FBECDBFA9
:1002F0007E8B6D8B5C8B4B8B988F8F8BFC01628D13
:10030000738D408D518DFA8FE98F872F880F880B61
:10031000982F4050544F9A013C8F2B8F6140704072
:10032000AB015E8F4D8FBC01604070401B0180406F
:1003300090402C01A084B1846501DD0CDD08CD2C3A
:100340008D2D880FEE08FE2CC20187010E94B00996
:100350003E832D834295242F2F70529525275F7061
:100360005C834B832527352F412D512D8295807F2E
:1003700072958727707F872762957627607F76271B
:10038000982E872E762E612C622A732A842A952A2B
:10039000AB8CBC8C9501CD8CDE8CA601B101C20169
:1003A000388A2F8671015A8A498A82010E94B009CF
:1003B000E98DFA8DA284B3846501DD0CDD08CD2CB6
:1003C000ED2DEE0FEE08FE2C3E872D875C874B87C8
:1003D0007A87698798878F8387010E94B009FC011B
:1003E000962F812DB12DA12D032F142FE52EF12C49
:1003F0000A2B1B2BE82AF92A2B813C81207F8D8137
:100400009E8192952927907F292782959827807F22
:100410009827522F492F382F212D9F2F990F990B55
:10042000672F7E2F8F2F200F311F4E1D5F1D661DE2
:10043000771D881D991D605070488F4F9F4FE98D23
:10044000FA8DA680B78000E010E0680178010E9474
:10045000B0091C0182E090E0E1E021153105400780
:100460005107680779072006310608F0E12DE17091
:10047000ED83832D880F880B9A8389833594279485
:10048000779567957C836B83EF89F88DFA8FE98F79
:10049000A684B7846501DD0CDD08CD2C8D2D880F79
:1004A000EE08FE2C2B8D3C8D4D8D5E8D6F857889F1
:1004B00089899A8987010E94B00939014B01872DEA
:1004C000880F441F551F812D881F912D880C991C62
:1004D000512C412C442A552A882A992AE98DFA8DD3
:1004E000A088B1886501DD0CDD08CD2C8D2D880F2D
:1004F000EE08FE2C2D853E854B855C8569857A85C9
:100500008F81988587010E94B009CB88DC88EC2D0B
:10051000E695B12CB794A12CB12DA12DED88FE88C4
:10052000F694E794D794C794A20FB31FA41EB51EE8
:10053000C61ED71EE81EF91EE98DFA8D84859585A5
:100540008C01110F110B012F880F991F001F111F14
:10055000880F991F001F111F880F991F001F111F5F
:100560008C0D9D1D0E1D1F1D660C771C512D412DE0
:100570004A0F5B1F6A1C7B1C841D951D081D191DDD
:1005800020E030E06901241B350BA601460957091C
:10059000B601680B790BC601800B910BE5E3FCE01B
:1005A0005F01760186010E94B009ED81E03009F01B
:1005B00057C188559E49A0E0B0E8E1E0211531051A
:1005C0004C055D056C057D058A079B0709F4E12D47
:1005D000E980FA80FE2CE170E0308F88988C0B81E6
:1005E0001C8191F4FFEFAFEFBFEFE1E00F3F1F077A
:1005F0002A063B06EA06FB06EA06FB0609F0E12DA1
:10060000E170E03009F030C15801610187010E94BA
:10061000F2093C8F2B8FE62FEE0FF72FDB01BC8BFF
:10062000AB8BFF1FEE0FFF1FEE0FFF1F712D612D14
:10063000232F22952F705A8F498F342F32952327DD
:100640003F702327452F429534274F703427469516
:1006500037952795512D262B372B4E2B5F2B9E8BB5
:100660008D8B192F110F110B092F0595F82EF7946B
:10067000EB2EE7940595F794E7940595F794E794A6
:100680000595F794E7940595F794E794B701C801A9
:1006900059016A010E94B009F401FE8FED8FA6880E
:1006A000B7886501DD0CDD08CD2CED2DEE0FEE08D1
:1006B000FE2C87010E94B009292F269587957795F2
:1006C0006795212D2795F82FE72F362F5695852EE4
:1006D000912C612C712C822A932A6E2A7F2A592E02
:1006E000550C55089595492E252C352C2B8D3C8D78
:1006F000820E931E498D5A8D641E751E6B897C89EE
:10070000461E571E8D899E89281E391EED8DFE8D31
:10071000A488B5886501DD0CDD08CD2CED2DEE0F2C
:10072000EE08FE2C87010E94B009382F3295307FE9
:1007300072953727707F372762957627607F7627F7
:10074000660F771F331F272F762F612D56954795FC
:100750005695479556954795E12DF12D462B572BEC
:10076000E22BF32B392F330F330B95958795959506
:10077000879595958795232F480D591DE61DF71DE3
:10078000841D951D221D331D782F612DB12DA12DA6
:10079000C52EDE2EAF2EB12CCA2ADB2AA62AB72AF6
:1007A000132F110F110BE92EF22E032FED8DFE8D5D
:1007B00022893389A901550F550B452FF52FF29545
:1007C000AF2FAF70B12D812C912C550F660B562F8A
:1007D0005295852F807F6295982F9627607F962768
:1007E00056275827852F792F6A2B7B2B8829992903
:1007F000F07F4295F427407FF42732954327307FDE
:10080000432722953227207F3227E42F2C0D3D1DD0
:10081000EA1DFB1D6E1D7F1D801F911FAF010E94F1
:100820004B0920E030E04AE758E40E94D60A6E9671
:100830000FB6F894DEBF0FBECDBFDF91CF911F91F1
:100840000F91FF90EF90DF90CF90BF90AF909F906F
:100850008F907F906F905F904F903F902F90089572
:1008600080E091E069E103C080E291E06FE170E037
:100870000E94DE060F931F93CF93DF93CDB7DEB7B1
:1008800025970FB6F894DEBF0FBECDBF1B8200E0E8
:1008900010E01A8309838C83CE010496BE016F5F3A
:1008A0007F4F43E050E00E94BF008530D1F48A8141
:1008B0009927302F292F982F812D4B81642F77274F
:1008C000682B792B89819927822B932B25960FB63C
:1008D000F894DEBF0FBECDBFDF91CF911F910F9176
:1008E0000895CE0105960E94E0060E9477042F929B
:1008F0003F924F925F926F927F928F929F92AF92B0
:10090000BF92CF92DF92EF92FF920F931F93CF93FC
:10091000DF93CDB7DEB7EF970FB6F894DEBF0FBE0B
:10092000CDBF8FB7F89490916E01903009F041C21D
:1009300091E090936E018FBF5998519A82E290E0B6
:100940009093C5008093C40082E08093C00088E14A
:100950008093C10086E08093C2003C98449A3D9801
:10096000459A88E98093B8001092B900CE01459667
:1009700068E80E9432018D89803009F012C28E89A8
:100980009F899C8B8B8BCE0145966AE80E94320131
:100990008D89803009F005C28E899F899A8B898B59
:1009A000CE0145966CE80E9432018D89803009F0B5
:1009B000F8C18E899F89988B8F87CE0145966EE806
:1009C0000E9432018D89803009F0EBC16E887F88EA
:1009D000CE01459660E90E9432018D89803009F090
:1009E000E0C1EE88FF88CE01459662E90E9432019F
:1009F0008D89803009F0D5C1CE88DF88CE0145963B
:100A000064E90E9432018D89803009F0CAC1AE8844
:100A1000BF88CE01459666E90E9432018D898030FB
:100A200009F0BFC10E891F89CE01459668E90E9471
:100A300032018D89803009F0B4C18E889F88CE0143
:100A400045966AE90E9432018D89803009F0A9C17A
:100A5000FE86ED864E885F88CE0145966CE90E9441
:100A600032018D89803009F09CC173012E883F8846
:100A7000CE0145966EE90E9432018D89803009F0E1
:100A800090C18E899F8920E83FE33CAB2BAB20E0EF
:100A900030E03AAB29AB38AB2FA739013EA72DA7E1
:100AA0009CA78BA73AA629A658A64FA29EA28DA2C4
:100AB0001CA30BA3BAA2A9A2D8A2CF8E8D859E8516
:100AC0009E8F8D8FFC8EEB8E8F8598899A8F898F64
:100AD00089899A89988F8F8B8B899C899E8B8D8B26
:100AE000812D0E945300853009F05FC18FE391E0B2
:100AF00062E070E00E949400853009F056C184E9FC
:100B00008093BC0087EF0E943A04AB01BC01CE0188
:100B100045969E878D870E945E019A8789879CAB48
:100B20008BAB7C876B877AAB69AB8B899C89880F91
:100B3000991F98878F83C301881F991F9E838D8378
:100B400089899A89990F990B892F9C838B838F852B
:100B50009889990F990B892F9A8389838AEF0E942C
:100B60003A041B018C01220C632D661F702F771F26
:100B7000812F881F912D991F2F813885621B730B40
:100B80002D813E81820B930B29893A894B815C81AF
:100B90000E94B309F92EFF0CFF089595879577956C
:100BA000959587957795959587957795C72ED82EA6
:100BB000E92E232D302F412F512D8B899C89281B05
:100BC000390B40405040B901CA010E94B309392F86
:100BD000330F330B959587957795959587957795F1
:100BE000959587957795959587957795672F782F24
:100BF000292FC9012F85388949815A810E94B3095B
:100C00008C01770F001F111FBB08770F001F111FEA
:100C1000AB2CAA1C0C0D1D1DAE1CBF1C87EF0E9427
:100C20003A04AB01BC01B8AAAFA61EA70DA78D85DB
:100C30009E850E945E019B01AC016B857C85898548
:100C40009A850E94D60A430194014AE754E40E941F
:100C50009E0B6B017C01940140E05FEC0E94990BBC
:100C6000182FB601C7010E94AD091C01812F8823EE
:100C70000AF04B01B601C7012FEF3FEF59014FEFCB
:100C80005EE40E94990B082F10160CF05401B60177
:100C9000C7019601A7010E940B0C8030930109F453
:100CA0009501112340E050E80AF0A10110166FEF02
:100CB0007FE70CF0BA018030530109F45B011301A6
:100CC0008101021B130B2A083B088B2D88230AF095
:100CD00015018B2D88230AF089018AE090E02C0110
:100CE000B801C1012AE030E04301A4010E94C30918
:100CF00079016A01B701C60126EF30E0A4010E9424
:100D0000B309600F711F6063CE01C596DC01A40DAD
:100D1000B51D6C9321E00A30110528043904F20155
:100D200008F4212D2170203029F031978701160118
:100D30002F01D6CF21E0BB200AF0212D21702030D9
:100D400031F03197DC01AE0FBF1F2DE22C938E0FD7
:100D50009F1F6BE070E06E1B7F0B0E94210181E4FE
:100D600091E061E070E00E9421019301C901A7EFC9
:100D7000BFE341E088319105B3012607370708F446
:100D8000412D4170403041F4FD013197F1F78F5F03
:100D90009F4F2F4F3F4FEDCF8BE79AE10197F1F730
:100DA000DDCECE0145960E94E006CE01C5960E949A
:100DB000E0068FBF0E94E2060E94E8060E94DC0661
:100DC0000E94DC0682E491E06BE270E00E94DE06A5
:100DD000FFCF4F925F926F927F928F929F92AF92CE
:100DE000BF92CF92DF92EF92FF920F931F93490130
:100DF0008115910509F041C09B0136952795262B59
:100E0000372BF901F695E795F695E795E22BF32B4D
:100E1000DF01B295A295AF70AB27BF70AB27AE2BA9
:100E2000BF2B9D01232F33272A2B3B2B2095309559
:100E3000F901F695E795E575F5752E1B3F0BF90160
:100E4000E373F3733695279536952795237333739C
:100E50002E0F3F1FD901B295A295AF70AB27BF707F
:100E6000AB27A20FB31FAF70BF70FD01EF2FFF279D
:100E7000EA0FFB1FF07070963FC09C0136952795D6
:100E8000282B392BF901F695E795F695E795E22B96
:100E9000F32BDF01B295A295AF70AB27BF70AB27E4
:100EA000AE2BBF2B9D01232F33272A2B3B2B2095C5
:100EB0003095F901F695E795E575F5752E1B3F0B15
:100EC000F901E373F37336952795369527952373C8
:100ED00033732E0F3F1FD901B295A295AF70AB2788
:100EE000BF70AB27A20FB31FAF70BF70FD01EF2F14
:100EF000FF27EA0FFB1FF0704115510509F041C0B3
:100F000094013695279528293929D901B695A795B1
:100F1000B695A795A22BB32B8D01129502950F7054
:100F200001271F7001270A2B1B2B9801232F332722
:100F3000202B312B20953095D901B695A795A57515
:100F4000B5752A1B3B0BD901A373B373369527954F
:100F500036952795237333732A0F3B1F890112950A
:100F600002950F7001271F700127020F131F0F70CA
:100F70001F70D801AB2FBB27A00FB11FB0705096C8
:100F80003FC09A0136952795242B352BD901B6956C
:100F9000A795B695A795A22BB32B8D011295029517
:100FA0000F7001271F7001270A2B1B2B9801232F7D
:100FB0003327202B312B20953095D901B695A79555
:100FC000A575B5752A1B3B0BD901A373B373369571
:100FD000279536952795237333732A0F3B1F890175
:100FE000129502950F7001271F700127020F131F22
:100FF0000F701F70D801AB2FBB27A00FB11FB070AF
:1010000020E030E0A05EBF4F11E06115710582075E
:10101000930709F4112D103009F4FD01AE2FAF73C1
:10102000103084017A016B015C01A030B1F0712CA9
:10103000412C512CBF2DBB0F612C661CCC0CDD1C30
:10104000AA1CBB1CA428B528C628D728000F111F2E
:10105000EE1CFF1CAA95A03069F7A1E08114910451
:1010600042075307620773078207930709F0A12D10
:10107000A170F695E795412D47955E2FF12DE12D55
:1010800080E89EE5B9016E1B7F0B840B950BA030A9
:10109000A90109F4AB01A03009F49C018D2D9A2D12
:1010A0006B2D712D480F591F261F371FE12FFE2D65
:1010B000AF2DB12DFC2CE12CD12CC12CEA2AFB2A1E
:1010C000CE2ADF2AC02AD12AEF2DEE0FE12DEE1F06
:1010D000F12DA12DB12D809590958E239F236095A4
:1010E00070956A237B23C81AD90AE60AF70AFF0C0F
:1010F000612D661F712D812D912D640F751F821F2B
:10110000931F1F910F91FF90EF90DF90CF90BF90B2
:10111000AF909F908F907F906F905F904F900895C9
:101120002F923F924F925F926F927F928F929F92F7
:10113000AF92BF92CF92DF92EF92FF920F931F93E5
:10114000CF93DF93CDB7DEB726970FB6F894DEBF07
:101150000FBECDBF260145015C011B015C834B83A3
:101160003901B701C8010E94B3098B016C01B401B8
:101170005E824D82C2019101A5010E94B3095B010B
:101180007C01A00EB11EEC1CFD1C00E010E0B201C1
:10119000C8019301A8010E94B3096B011C01B401AD
:1011A000C8014B805C809201A8010E94B309C60E61
:1011B000D71E281E391EC801881F991F9A8389834C
:1011C000B401C8019301A8010E94B3094B013C017D
:1011D0006D817E81C8019201A8010E94B3096C0C47
:1011E0007D1C621D731D29813A81821F931F6A0D28
:1011F0007B1D8E1D9F1D9401A30126960FB6F894AA
:10120000DEBF0FBECDBFDF91CF911F910F91FF9039
:10121000EF90DF90CF90BF90AF909F908F907F9096
:101220006F905F904F903F902F900895CF92DF92F4
:10123000EF92FF920F931F938C016B01DA017901FA
:1012400080E090E09C012E193F09AC014A0B5B0B3A
:10125000BC016C097D09800B910BE1E0F12FFF23AC
:101260000AF0E12DE03009F49701E03009F4AD0116
:10127000E03009F4B601E03009F4C8010E94E90643
:1012800000701078802B912B1F910F91FF90EF90A1
:10129000DF90CF9008950E94160908959C01A9013E
:1012A0005F7780E89FE3E1E0611571054807590722
:1012B00008F0E12DE17080E090E0E03011F0BC0139
:1012C0000895A0E0BFE4E1E0611571054A075B07FE
:1012D00008F0E12DE170E030A9F0F22FE72F562F52
:1012E000412DF068220F632F661F212D221F2EE152
:1012F000261B2F712030E1F0F695E795579547951D
:101300002A95F8CFE0E8FFE781E0613071054E07EC
:101310005F0708F0812D81708030D9F0330F660BA4
:10132000762F8FEF9FE78627972760957095089512
:10133000BC01641B750B8E0B9F0B21E033230AF05D
:10134000212D2170203009F4CF01203081F7BA011E
:10135000089560E070E0CB0108950E944E09089561
:101360000E9490080895DB018F939F930E94E509E6
:10137000BF91AF91A29F800D911DA39F900DB29F31
:10138000900D11240895A1E21A2EAA1BBB1BFD018A
:101390000DC0AA1FBB1FEE1FFF1FA217B307E40754
:1013A000F50720F0A21BB30BE40BF50B661F771FAC
:1013B000881F991F1A9469F760957095809590958C
:1013C0009B01AC01BD01CF0108950E94C70AA59FF2
:1013D000900DB49F900DA49F800D911D1124089530
:1013E000689401C0E894F92FF12B12F00C94240AB0
:1013F000A0E0B0E0EEEFF9E00C94960A092E059417
:1014000022F40E94800A112392F4F0E80F26FFEFE5
:10141000E094F09400951095B094C094D094A19469
:10142000BF0ACF0ADF0AEF0AFF0A0F0B1F0B0E9449
:101430002F0A07FC0E94800ACDB7DEB7ECE00C94BF
:10144000B20A689401C0E8948F929F92CF93DF9381
:101450000E942F0ADF91CF919F908F90089588244A
:101460009924F401E401B0E49F93AA279A158B0410
:101470009C04ED05FE05CF05D007A10798F4AD2F1C
:10148000DC2FCF2FFE2FE92D982C892E982F872F18
:10149000762F652F542F432F322F2227B85031F744
:1014A000BF9127C01B2EBF91BB27220F331F441FA4
:1014B000551F661F771F881F991F881C991CEE1FD8
:1014C000FF1FCC1FDD1FAA1FBB1F8A149B04EC0546
:1014D000FD05CE05DF05A007B10748F08A189B0877
:1014E000EC09FD09CE09DF09A00BB10B21601A94AC
:1014F000E1F62EF49401AF01BE01CD01000C089578
:101500006095709580959095309540955095219572
:101510003F4F4F4F5F4F6F4F7F4F8F4F9F4F0895FC
:101520002F923F924F925F926F927F928F929F92F3
:10153000AF92BF92CF92DF92EF92FF920F931F93E1
:10154000CF93DF93CDB7DEB7CA1BDB0B0FB6F89492
:10155000DEBF0FBECDBF09942A88398848885F84D2
:101560006E847D848C849B84AA84B984C884DF8043
:10157000EE80FD800C811B81AA81B981CE0FD11D27
:101580000FB6F894DEBF0FBECDBFED010895A29F48
:10159000B001B39FC001A39F700D811D1124911D47
:1015A000B29F700D811D1124911D08950E94EA0AB9
:1015B0000C945F0B0E94580B58F00E94510B40F0A6
:1015C00029F45F3F29F00C94480B51110C94930BB4
:1015D0000C944E0B0E94700B68F39923B1F35523C2
:1015E00091F3951B550BBB27AA2762177307840736
:1015F00038F09F5F5F4F220F331F441FAA1FA9F3CC
:1016000035D00E2E3AF0E0E832D091505040E695B9
:10161000001CCAF72BD0FE2F29D0660F771F881F1A
:10162000BB1F261737074807AB07B0E809F0BB0B0D
:10163000802DBF01FF2793585F4F3AF09E3F510521
:1016400078F00C94480B0C94930B5F3FE4F3983EB6
:10165000D4F3869577956795B795F7959F5FC9F70A
:10166000880F911D9695879597F90895E1E0660F8B
:10167000771F881FBB1F621773078407BA0720F004
:10168000621B730B840BBA0BEE1F88F7E09508956D
:1016900097F99F6780E870E060E008959FEF80EC25
:1016A000089500240A9416161706180609060895C8
:1016B00000240A9412161306140605060895092E2E
:1016C0000394000C11F4882352F0BB0F40F4BF2B9D
:1016D00011F460FF04C06F5F7F4F8F4F9F4F0895DD
:1016E00057FD9058440F551F59F05F3F71F04795D3
:1016F000880F97FB991F61F09F3F79F087950895B8
:10170000121613061406551FF2CF4695F1DF08C0D6
:10171000161617061806991FF1CF869571056105F3
:1017200008940895E894BB2766277727CB0197F99B
:1017300008950E94100C08F48FEF08950E94B10BD9
:101740000C945F0B0E94510B38F00E94580B20F054
:10175000952311F00C94480B0C944E0B11240C940F
:10176000930B0E94700B70F3959FC1F3950F50E09F
:10177000551F629FF001729FBB27F00DB11D639F43
:10178000AA27F00DB11DAA1F649F6627B00DA11DE9
:10179000661F829F2227B00DA11D621F739FB00D8F
:1017A000A11D621F839FA00D611D221F749F3327FF
:1017B000A00D611D231F849F600D211D822F762F98
:1017C0006A2F11249F5750409AF0F1F088234AF075
:1017D000EE0FFF1FBB1F661F771F881F91505040E1
:1017E000A9F79E3F510580F00C94480B0C94930B85
:1017F0005F3FE4F3983ED4F3869577956795B79568
:10180000F795E7959F5FC1F7FE2B880F911D969581
:10181000879597F908950E94100C880B990B0895ED
:10182000990F0008550FAA0BE0E8FEEF16161706F1
:10183000E807F907C0F012161306E407F50798F059
:10184000621B730B840B950B39F40A2661F0232B72
:10185000242B252B21F408950A2609F4A140A695EE
:0C1860008FEF811D811D0895F894FFCFCB
:10186C00617474656D707420746F2064697669643A
:10187C0065206279207A65726F000000000000001C
:10188C00617474656D707420746F2064697669641A
:10189C00652077697468206F766572666C6F77F473
:1018AC003F0A63616C6C656420604F7074696F6E85
:1018BC003A3A756E77726170282960206F6E2061DC
:0E18CC0020604E6F6E65602076616C75650061
:00000001FF
