:100000000C9434000C9451000C9451000C94510049
:100010000C9451000C9451000C9451000C9451001C
:100020000C9451000C9451000C9451000C9451000C
:100030000C9451000C9451000C9451000C945100FC
:100040000C9451000C9451000C9451000C945100EC
:100050000C9451000C9451000C9451000C945100DC
:100060000C9451000C94510011241FBECFEFD8E026
:10007000DEBFCDBF11E0A0E0B1E0E6E6FBE002C0EC
:1000800005900D92A230B107D9F721E0A2E0B1E0CE
:1000900001C01D92A330B207E1F70E9453000C94F7
:1000A000B1050C9400000E9455002F923F924F9290
:1000B0005F926F927F928F929F92AF92BF92CF92F8
:1000C000DF92EF92FF920F931F93CF93DF93CDB701
:1000D000DEB760970FB6F894DEBF0FBECDBF8FB707
:1000E000F89490910201903009F04AC291E0909307
:1000F00002018FBF2D98259A5998519A82E290E07B
:100100009093C5008093C40082E08093C00088E192
:100110008093C10086E08093C2003C98449A3D9849
:10012000459A88E98093B8001092B90084EA8093D8
:10013000BC008091BC008823E2F78091B9008695CD
:10014000869586958A95823008F03CC08CEE809327
:10015000BB0084E88093BC008091BC008823E2F758
:100160008091B900869586958695883034F48330E1
:1001700051F0843009F423C025C0893009F41FC030
:10018000883009F01FC080E090E024E882309105BB
:10019000B1F0DC01A050BF4F3C913093BB002093E5
:1001A000BC003091BC003323E2F701963091B900D6
:1001B000369536953695353049F3363019F484E95D
:1001C0008093BC0060E070E034E8CE0103969A832F
:1001D000898344EF1D822B017C836B8384EA8093A7
:1001E000BC008091BC008823E2F78091B90086951D
:1001F000869586958A95823008F033C08CEE809380
:10020000BB003093BC008091BC008823E2F7809152
:10021000B90086958695869588302CF4833039F020
:100220008430E1F01EC08930C9F08830D1F4C201B9
:100230008130910509F453C14093BB003093BC0059
:100240002091BC002223E2F701962091B900269567
:1002500026952695253061F3263019F484E980939C
:10026000BC008D81982F812DD12CC12C2C81A22EE8
:10027000BB24A82AB92A8B81282F33272C293D2972
:10028000220F331F7A2D771F8B2D881F912D991FD9
:10029000632F2AE830E04201A4010E940704605A5B
:1002A0007249804090409695879577959695879569
:1002B0007795969587957795072F182FE92EF12C2E
:1002C0002D2D3A2D4B2D512D285830404040504077
:1002D000B901CA010E94070472957F708295782740
:1002E0008F707827929589279F708927672F782F9D
:1002F000892F912D2CE830E0A4010E9407049C0175
:10030000770F221F331F812D881F770F221F331F66
:10031000881F912D200F311F8E1D9F1DB90125E0D3
:1003200030E0A4010E94070460587F4F8F4F9F4F19
:10033000672F782F892F912D0E94CA02940108EC13
:1003400012E4A8010E9453049401A8010E941B0515
:100350006B015C01940140E05FEC0E941605182FD0
:10036000B601C5010E9404047C01812F88230AF094
:100370004B01B601C5012FEF3FEF39014FEF5EE4AE
:100380000E941605082F10160CF03401B601C501A5
:100390009601A5010E9488058030A2019A0109F406
:1003A00093011123E0E0F0E80AF0F70110166FEF77
:1003B0007FE70CF0BF0180304A0109F44B018A014C
:1003C000021B130B7A01E808F908892D88230AF02B
:1003D0008901892D88230AF07401B801C7012AE038
:1003E00030E00E941704A2016063688B81E00A304C
:1003F0001105E406F50608F0812D817080308AE051
:1004000090E01C0109F027C01C01B801C7012AE0D7
:1004100030E039010E94170469015A01B601C50193
:100420009301A2010E9417046063C1010197DE01DC
:1004300016961C01A80FB91F6C93A20181E0043627
:100440001105E406F50608F0812D817080308601E3
:10045000750109F4DACF81E099200AF0812D8170CD
:100460008030F101A9F03197DE011696AE0FBF1F63
:100470008DE28C930DC0DE011696AE0FBF1F8C91DE
:100480009091C00090729030D9F38093C60031965D
:10049000EB30F10581F78091C00080728030D9F394
:1004A0008AE08093C600B201CB019B01A7EFBFE3B6
:1004B000FD013197F1F741E08731910526073707B4
:1004C00008F0412D41708F5F9F4F2F4F3F4F4030BD
:1004D00079F78BE79AE10197F1F734E87ACE84EA6D
:1004E0008093BC008091BC008823E2F78091B90022
:1004F0008695869586958A95823008F0B2CE8DEEE7
:100500008093BB003093BC008091BC008823E2F74D
:100510008091B90086958695869588301CF4833045
:1005200039F07ECE893009F499CE883009F099CE21
:10053000A981BA81C2018230910539F43093BC009F
:100540002091BC002223E2F707C024EC2093BC00DA
:100550002091BC002223E2F72091B900207F2035B2
:1005600009F07FCE01962091BB002C93DC014981DC
:100570005A81A40FB51F8330910509F0DCCF6ECEF0
:100580008FBF0E94C7020E94C9020E94C3020E943C
:10059000C502FFCFEF92FF920F931F9320E030E050
:1005A00041E0611571058207930709F0412D417003
:1005B000403009F045C08115910509F043C09B0109
:1005C00036952795262B372BA90156954795569595
:1005D0004795422B532BFA01F295E295EF70EF27E6
:1005E000FF70EF27E42BF52B9F01232F33272E2BB2
:1005F0003F2B20953095A901569547954575557522
:10060000241B350BA90143735373369527953695F3
:10061000279523733373240F351FA90152954295F3
:100620004F7045275F704527420F531F4F705F7013
:10063000FA01EF2FFF27E40FF51FF070709641C00D
:10064000C9017DC09C0136952795282B392BA9011E
:100650005695479556954795422B532BFA01F2959F
:10066000E295EF70EF27FF70EF27E42BF52B9F014A
:10067000232F33272E2B3F2B20953095A9015695FC
:10068000479545755575241B350BA9014373537365
:10069000369527953695279523733373240F351F89
:1006A000A901529542954F7045275F704527420F2B
:1006B000531F4F705F70FA01EF2FFF27E40FF51FF4
:1006C000F070E03041F02E2F660F771F881F991FC2
:1006D0002A952030C9F7272F382F892F912DA9016E
:1006E00040955095762F612DB12DA12D172F110F0B
:1006F000012D001F112DE12CF12C04231523AC0139
:10070000409550954E215F21A01BB10B640B750BDA
:10071000770F412D441F512D612D712DF695E795D1
:10072000A12DA795BE2FF12DE12D2E1B3F0B8A0B7E
:100730009B0B240F351F861F971F8058914BB901C3
:100740001F910F91FF90EF9008959C01A9015F7791
:1007500080E89FE3E1E0611571054807590708F05B
:10076000E12DE17080E090E0E03011F0BC010895EF
:10077000A0E0BFE4E1E0611571054A075B0708F0FE
:10078000E12DE170E030A9F0F22FE72F562F412D37
:10079000F068220F632F661F212D221F2EE1261BDA
:1007A0002F712030E1F0F695E795579547952A95FA
:1007B000F8CFE0E8FFE781E0613071054E075F07A1
:1007C00008F0812D81708030D9F0330F660B762FC1
:1007D0008FEF9FE786279727609570950895BC0156
:1007E000641B750B8E0B9F0B21E033230AF0212D28
:1007F0002170203009F4CF01203081F7BA0108952B
:1008000060E070E0CB0108950E94A5030895DB012C
:100810008F939F930E943904BF91AF91A29F800D47
:10082000911DA39F900DB29F900D11240895A1E2F8
:100830001A2EAA1BBB1BFD010DC0AA1FBB1FEE1F5A
:10084000FF1FA217B307E407F50720F0A21BB30BA5
:10085000E40BF50B661F771F881F991F1A9469F721
:1008600060957095809590959B01AC01BD01CF017D
:1008700008950E944404A59F900DB49F900DA49FDD
:10088000800D911D11240895A29FB001B39FC00156
:10089000A39F700D811D1124911DB29F700D811DAC
:1008A0001124911D08950E9467040C94DC040E9499
:1008B000D50458F00E94CE0440F029F45F3F29F09F
:1008C0000C94C50451110C9410050C94CB040E9497
:1008D000ED0468F39923B1F3552391F3951B550B60
:1008E000BB27AA2762177307840738F09F5F5F4F03
:1008F000220F331F441FAA1FA9F335D00E2E3AF042
:10090000E0E832D091505040E695001CCAF72BD059
:10091000FE2F29D0660F771F881FBB1F26173707AA
:100920004807AB07B0E809F0BB0B802DBF01FF27DC
:1009300093585F4F3AF09E3F510578F00C94C504F0
:100940000C9410055F3FE4F3983ED4F386957795B9
:100950006795B795F7959F5FC9F7880F911D969595
:10096000879597F90895E1E0660F771F881FBB1FF1
:10097000621773078407BA0720F0621B730B840B9E
:10098000BA0BEE1F88F7E095089597F99F6780E806
:1009900070E060E008959FEF80EC089500240A94D1
:1009A0001616170618060906089500240A9412164A
:1009B0001306140605060895092E0394000C11F47D
:1009C000882352F0BB0F40F4BF2B11F460FF04C02A
:1009D0006F5F7F4F8F4F9F4F089557FD9058440F83
:1009E000551F59F05F3F71F04795880F97FB991F8E
:1009F00061F09F3F79F0879508951216130614064B
:100A0000551FF2CF4695F1DF08C0161617061806D7
:100A1000991FF1CF86957105610508940895E894B2
:100A2000BB2766277727CB0197F908950E948D058C
:100A300008F48FEF08950E942E050C94DC040E94A8
:100A4000CE0438F00E94D50420F0952311F00C94C8
:100A5000C5040C94CB0411240C9410050E94ED04E1
:100A600070F3959FC1F3950F50E0551F629FF00101
:100A7000729FBB27F00DB11D639FAA27F00DB11D1A
:100A8000AA1F649F6627B00DA11D661F829F2227A3
:100A9000B00DA11D621F739FB00DA11D621F839F2A
:100AA000A00D611D221F749F3327A00D611D231F00
:100AB000849F600D211D822F762F6A2F11249F574E
:100AC00050409AF0F1F088234AF0EE0FFF1FBB1F51
:100AD000661F771F881F91505040A9F79E3F510510
:100AE00080F00C94C5040C9410055F3FE4F3983E2D
:100AF000D4F3869577956795B795F795E7959F5FBA
:100B0000C1F7FE2B880F911D9695879597F908954B
:100B10000E948D05880B990B0895990F0008550FB9
:100B2000AA0BE0E8FEEF16161706E807F907C0F073
:100B300012161306E407F50798F0621B730B840B7B
:100B4000950B39F40A2661F0232B242B252B21F455
:100B500008950A2609F4A140A6958FEF811D811DF5
:060B60000895F894FFCF98
:020B6600F73F57
:00000001FF
