:100000000C9434000C9451000C9451000C94510049
:100010000C9451000C9451000C9451000C9451001C
:100020000C9451000C9451000C9451000C9451000C
:100030000C9451000C9451000C9451000C945100FC
:100040000C9451000C9451000C9451000C945100EC
:100050000C9451000C9451000C9451000C945100DC
:100060000C9451000C94510011241FBECFEFD8E026
:10007000DEBFCDBF11E0A0E0B1E0E2ECFAE102C0EA
:1000800005900D92AC36B107D9F721E0ACE6B1E0AE
:1000900001C01D92AD36B207E1F70E9466010C94D3
:1000A0005F0D0C940000EF92FF920F931F9324EAD0
:1000B0002093BC002091BC002223E2F72091B900DC
:1000C000269526952695322F3A95323040F02030ED
:1000D00009F4CAC0273009F4C5C084E0C6C02CEEBC
:1000E0002093BB0024E82093BC002091BC00222375
:1000F000E2F72091B900269526952695273044F4FD
:10010000203009F4B1C0233061F0243031F76CC0E5
:10011000273009F4A7C0293009F466C0283009F057
:10012000DCCF7B01E0E0F0E024E8E130F10509F408
:1001300022C0DC01AE0FBF1F3C913093BB00209367
:10014000BC003091BC003323E2F731963091B90006
:10015000369536953695353041F3303009F484C004
:10016000373009F47FC0363009F0B7CF84E9809387
:10017000BC0082E07AC084EA8093BC008091BC001D
:100180008823E2F78091B900869586958695982F09
:100190009A959230FA0138F0803009F465C08730C2
:1001A00009F460C09ACF8DEE8093BB0084E8809301
:1001B000BC008091BC008823E2F78091B90086954D
:1001C00086958695873044F4803009F44DC083309D
:1001D00081F0843049F081CF873009F443C0883002
:1001E00041F0893009F079CF84E98093BC0081E047
:1001F0003CC097012E0F3F1F319780E090E044E80C
:1002000054EC8E179F0739F44093BC006091BC00FA
:100210006623E2F706C05093BC006091BC006623E1
:10022000E2F76091B900669566956695762F7A50EB
:10023000723098F401968F01D701FD0131966091DB
:10024000BB006C93E217F3077F01F80109F0D9CFE7
:1002500084E98093BC0085E008C0603029F06730F5
:1002600009F03BCF812D01C083E01F910F91FF90DA
:10027000EF900895CF93DF93CDB7DEB725970FB6F4
:10028000F894DEBF0FBECDBF1B8220E030E03A8382
:1002900029838C83CE010496BE016F5F7F4F43E0BC
:1002A00050E00E945300853069F48B819927698161
:1002B0007A8125960FB6F894DEBF0FBECDBFDF91D1
:1002C000CF910895CE0105960E9484080E9468018E
:1002D0002F923F924F925F926F927F928F929F9256
:1002E000AF92BF92CF92DF92EF92FF920F931F9344
:1002F000CF93DF93CDB7DEB7CE54D0400FB6F8948E
:10030000DEBF0FBECDBF8FB7F89490916C019030D7
:1003100009F07EC291E090936C018FBF2D98259AD1
:100320005998519A82E290E09093C5008093C4005E
:1003300082E08093C00088E18093C10086E08093D2
:10034000C2003C98449A3D98459A88E98093B80049
:100350001092B90080E090E00FB625969FAF8EAF67
:1003600025970FBE6C0188E80FB660968EAF609738
:100370000FBECE01825B9F4FBE016D5B7F4F02E0DF
:1003800010E0A8010E9453000FB626968EAD269766
:100390000FBE8FA30FB625968EAD25970FBE0FB655
:1003A00021968EAF21970FBE0FB62596DFAECEAE4B
:1003B00025970FBE8AE80FB660968EAF60970FBE86
:1003C000CE01825B9F4FBE016D5B7F4FA8010E94F3
:1003D00053000FB625968EAD25970FBE8DAF0FB685
:1003E00026968EAD26970FBE8BAF0FB62596DFAE45
:1003F000CEAE25970FBE8CE80FB660968EAF609795
:100400000FBECE01825B9F4FBE016D5B7F4FA80187
:100410000E9453000FB625968EAD25970FBE89AF6B
:100420000FB626968EAD26970FBE8FAB0FB62596CC
:10043000DFAECEAE25970FBE8EE80FB660968EAFBC
:1004400060970FBECE01825B9F4FBE016D5B7F4FF9
:10045000A8010E9453000FB625968EAD25970FBEBA
:100460008DAB0FB626968EAD26970FBE8BAB0FB613
:100470002596DFAECEAE25970FBE80E90FB660960B
:100480008EAF60970FBECE01825B9F4FBE016D5B4A
:100490007F4FA8010E9453000FB625968EAD259779
:1004A0000FBE89AB0FB626968EAD26970FBE89A7D5
:1004B0000FB62596DFAECEAE25970FBE82E90FB6FA
:1004C00060968EAF60970FBECE01825B9F4FBE01DC
:1004D0006D5B7F4FA8010E9453000FB625969EAC1E
:1004E00025970FBE0FB626968EAC26970FBE0FB679
:1004F0002596DFAECEAE25970FBE84E90FB6609687
:100500008EAF60970FBECE01825B9F4FBE016D5BC9
:100510007F4FA8010E9453000FB625963EAC259749
:100520000FBE0FB626962EAC26970FBE0FB6259699
:10053000DFAECEAE25970FBE86E90FB660968EAFC2
:1005400060970FBECE01825B9F4FBE016D5B7F4FF8
:10055000A8010E9453000FB62596FEAC25970FBE4A
:100560000FB62696EEAC26970FBE0FB62596DFAED9
:10057000CEAE25970FBE88E90FB660968EAF609716
:100580000FBECE01825B9F4FBE016D5B7F4FA80106
:100590000E9453000FB62596BEAC25970FBE0FB62E
:1005A0002696AEAC26970FBE0FB62596DFAECEAE22
:1005B00025970FBE8AE90FB660968EAF60970FBE83
:1005C000CE01825B9F4FBE016D5B7F4FA8010E94F1
:1005D00053000FB625967EAC25970FBE0FB6269614
:1005E0006EAC26970FBE0FB62596DFAECEAE259722
:1005F0000FBE8CE90FB660968EAF60970FBECE012E
:10060000825B9F4FBE016D5B7F4FA8010E9453002C
:100610000FB625965EAC25970FBE0FB626964EAC4C
:1006200026970FBE0FB62596DFAECEAE25970FBE2E
:100630008EE90FB660968EAF60970FBECE01825BDB
:100640009F4FBE016D5B7F4F0FB623967FAF6EAF9E
:1006500023970FBEA8010E9453000FB625968EADBA
:1006600025970FBE0FB626969EAD26970FBE24EA9D
:100670002093BC000FB621962EAD21970FBE422FBE
:1006800055272BAD33273CAF2BAF2DAD332738ABE0
:100690002FA72FA933273EAF2DAF29AD33273EA774
:1006A0002DA72BA933273AAF29AF2DA933273CA774
:1006B0002BA729A5332738AF2FAB29A933270FB68E
:1006C00021963FAF2EAF21970FBE282D33273EAB8B
:1006D0002DAB292D33273AA729A7622D7727232C65
:1006E00033248E2C9924CF2CDD24EA2CFF24AB2D2F
:1006F000BB27A62CBB24E72DFF27642C7724252DB0
:100700003327492E5524082F11278091BC008823B8
:10071000E2F78091B9008695869586958A95823014
:1007200008F09EC08FA19927542F4427482B592B9E
:1007300058A74FA3102F0027042915291AA309A38E
:10074000322F2227262937293CA32BA3FE2FEE2761
:10075000EA29FB295F01BA2FAA27AE29BF29BEA328
:10076000ADA39601322F222728293929C101982FBC
:100770008827862B972B7C0169A57AA5762F66277B
:100780008DA99EA9682B792B7AA769A70FB6219608
:100790008EAD9FAD21970FBE982F88274FA958ADDA
:1007A000842B952B4C01EBA5FCA5FE2FEE2789ADE4
:1007B0009AADE82BF92BFCA7EBA76DA57EA5762FAC
:1007C00066278DAD9EAD682B792B7EA76DA78FA573
:1007D00098A9982F88274BAD5CAD842B952B98ABAF
:1007E0008FA78CEE8093BB0084E88093BC0080913F
:1007F000BC008823E2F74091B9004695469546959E
:1008000048304CF4433069F0443009F426C028C025
:100810008FBF0E947E08493009F41FC0483009F09C
:100820001FC0E0E0F0E044E8E230F105F1F0DF0164
:10083000A15CBE4F8C918093BB004093BC00809123
:10084000BC008823E2F731965091B9005695569531
:100850005695553049F3563019F484E98093BC001D
:10086000CE018D5B9F4F0E94840884E98093BC0079
:10087000D901CD01990F990B892F4B2F440F881F58
:10088000592F551F612D661F482F712D990F880B09
:10089000982F880F991FF12DE12DE42BF52B862B36
:1008A000972BAA0FBB1F512D412D00E010E06801CE
:1008B0009601241B350B3E8F2D8F96012A0B3B0B87
:1008C0003C8F2B8F96012E0B3F0B3A8F298F960171
:1008D000280B390B388F2F8BD501AD01550F550BD8
:1008E000452FF52FF2952F2F2F70312D812D912D22
:1008F000550F000B502F5295652F607F0295762F74
:100900007027007F702750275627652F172F682BD9
:10091000792B7A836983022B132B1C830B8394011D
:10092000330F330B232F2295622F6F70732F729525
:1009300067277F706727812D912D330FEE0B3E2F98
:10094000E2951E2F107F3295B12EB326307FB3264D
:100950003E273127A32E012DA82AB92ABC8AAB8AAB
:10096000062B172B1E8B0D8B8FA198A5880F991F17
:100970009A8B898BCC1CDD1CD88ACF86F07F429560
:10098000F427407FF427B2954B27B07F4B27A295E1
:10099000BA27A07FBA27B887AF83E42FFE83ED8301
:1009A000C701990F990B892FEE0CFF1C881F991F07
:1009B000EE0CFF1C881F991FEE0CFF1CF8A2EF8E97
:1009C000881F991F9E878D87207FA4015295252718
:1009D000507F252742955427407F5427922F852FFB
:1009E0009C878B87942F812D9A8789878AEF0E9415
:1009F0003A018B015C0196958A2D87957795602F3A
:100A00006795969587957795679596958795779548
:100A1000679529893A89621B730B2F853889820B68
:100A2000930B2FA538A9A901550F550B452F0E94EF
:100A30004B0BF92EFF0CFF089595879577959595AB
:100A400087957795959587957795C72ED82EE92E1A
:100A500002950F70129501271F700127A50142957D
:100A600014274F701427529545275F7045278FA193
:100A700098A5081B190B40405040B801CA019801C5
:100A80000E944B0BF92FFF0FFF0B959587957795DC
:100A9000959587957795959587957795959587956C
:100AA0007795672F782FE92F2DA53EA5A901550F22
:100AB000550B452FCF010E944B0B9C01770F221F36
:100AC000331F550B770F221F331F452F441F2C0D4B
:100AD0003D1D4E1D5F1D2050344F0FB621963FAF78
:100AE0002EAF21970FBE41405040852F6A01DEAEE8
:100AF000CDAE880F4408542CB201C20159017201D5
:100B000082010E94480BA9A4BAA4F501FF0FFF0BB4
:100B1000EF2FAF2FAA0FEE08FE2C3AAF29AF58AF38
:100B20004FAB7EAB6DAB9CAB8BAB6F0187010E9473
:100B3000480BF62FE12DB12DA12D832E942E652E7D
:100B4000712C8A2A9B2A6E2A7F2A392E330C33086D
:100B5000272F382F3AAB29AB292E29853A854B858B
:100B60005C856D897E898B899C890FB62196AEAC98
:100B7000BFAC21970FBECDACDEAC72015CAE4BAE0C
:100B800082010E94480B280D391D461D571DE9A9F9
:100B9000FAA96E1F7F1F821D931D605070488F4FF2
:100BA0009F4FABA4BCA4E0E0F0E06F0176018601AA
:100BB0000E94480BDB014C0161E0211531054C0519
:100BC0005D0582E090E0A807B9078C049D0408F059
:100BD000612D6170892D880F660895948794B7956B
:100BE000A795ADA0BEA0F501FF0FFF0BEF2F8F2F34
:100BF000880FEE08FE2C29AD3AAD4FA958AD762EE0
:100C00006DA97EA98BA99CA96F012D0187010E9466
:100C1000480B19015EAB4DAB78AF6FAB9AAF89AFA4
:100C20002D8D3E8D4B8D5C8D698D7A8D8F89988D44
:100C30000FB62196AEACBFAC21970FBECDACDEACEB
:100C4000EBACFCAC87010E94480B89017A016B0177
:100C50005C0187EF0E943A01969587957795262F3C
:100C60002795372F4F8D58A1240F351F4D855E8551
:100C7000841F951F6695512D5795412D712D612D1E
:100C8000061B170BE40AF50AC20AD30AA80AB90A16
:100C9000021913098DA99EA9E80AF90A8FA998AD2E
:100CA000C80AD90A89AD9AADA80AB90A9801A7015C
:100CB000B601C501E5E3FCE05F01E0E0F0E06F01B3
:100CC000760186010E94480BE72DE03009F008C24A
:100CD000762CE1E082010F3FFFEF1F07AFEFBFEF80
:100CE0008A069B066A067B066A067B06580109F49B
:100CF000E12D88559E49E170E03099F4E1E021153D
:100D00003105A0E0B0E04A075B076A077B07A0E077
:100D1000B0E88A079B0709F0E12DE170E03009F0A7
:100D2000E3C16401730183010E948A0B3AAF29AFCA
:100D3000A62FAA0FB72F7CAF6BAFBB1FAA0FBB1F8D
:100D4000AA0FBB1FF12DE12D032F02950F700FB6D7
:100D500021965FAF4EAF21970FBE142F129501273A
:100D60001F700127252F229512272F7012272695F5
:100D7000822E179507951801912C2E2A3F2A8A2A30
:100D80009B2A9EAF8DAF592E550C5508492E459480
:100D9000782E7794672E679445947794679445945A
:100DA000779467944594779467944594779467947F
:100DB000A9A0BAA0F501FF0FFF0BEF2F8F2F880F0F
:100DC000EE08FE2C9101A401B301C2016F0187015D
:100DD0000E94480B51016401730182010E94480B7B
:100DE0002C01852D8695479477956795812D87955C
:100DF000342D272F962F5695652E712C212C312CB2
:100E0000682A792A222A332AABA0BCA0F501FF0F59
:100E1000FF0BEF2F8F2F880FEE08FE2C89AC9AACBA
:100E200094010FB621964EAD5FAD21970FBE6BAD0D
:100E30007CAD8DAD9EAD6F0187010E94480B382FB0
:100E40003295307F72953727707F372762957627E6
:100E5000607F7627660F771F331F272FF62FE12D30
:100E6000569547955695479556954795612D712D01
:100E70004E2B5F2B622B732B392F330F330B959532
:100E800087959595879595958795232F480D591D9D
:100E90000FB62196EEADFFAD21970FBE6E1F7F1FDF
:100EA000EBADFCAD8E1F9F1FEDADFEAD2E1F3F1FA6
:100EB000F52DFF0FFF0B5594E52DAF2FBF2F460DDE
:100EC000571D621D731DE81FF91FA21FB31F9E2F20
:100ED000812D112D012D252F362F472F512D202B00
:100EE000312B482B592B9B2F990F990B6F2F7A2F52
:100EF0008B2FEF81F8852E0F3F1FED81FE814E1F56
:100F00005F1FEB81FC816E1F7F1FE981FA818E1FBD
:100F10009F1F0E94E30A20E030E049014AE758E4BD
:100F20000E946E0C6B015C01940140E05FEC0E943A
:100F3000310D182FB601C5010E94450B7C01812F90
:100F400088230AF04B01B601C5012FEF3FEF3901AD
:100F50004FEF5EE40E94310D082F10160CF03401A3
:100F6000B601C5019601A5010E94360D803020E032
:100F700030E009F49301112340E050E80AF0A701A2
:100F800010166FEF7FE70CF0BA01803080E090E040
:100F90004C0109F44B017C018701021B130BE8088B
:100FA000F908892D88230AF08901892D88230AF000
:100FB0007401B801C7012AE030E040E050E06A0166
:100FC0000E945B0B60630FB62F966EAF2F970FBE1C
:100FD00081E00A301105EC04FD0408F0812D8170D8
:100FE00080308AE090E01C0109F02DC01C01B8019E
:100FF000C7012AE030E0290140E050E03A010E94B8
:101000005B0B69015A01B601C5019201A3010E945F
:101010005B0B6063C10101970FB62396AEADBFAD08
:1010200023970FBE1C01A80FB91F6C9381E00436F3
:101030001105E604F70408F0812D817080308601E7
:10104000750109F4D4CF81E099200AF0812D8170D7
:101050008030F101E9F031970FB62396AEADBFAD08
:1010600023970FBEAE0FBF1F8DE28C9311C00FB63A
:101070002396AEADBFAD23970FBEAE0FBF1F8C91B1
:101080009091C00090729030D9F38093C600319651
:10109000EB30F10561F78091C00080728030D9F3A8
:1010A0008AE08093C60020E030E0C901A7EFBFE3EB
:1010B000FD013197F1F741E08731910560E070E083
:1010C0002607370708F0412D41708F5F9F4F2F4F44
:1010D0003F4F403069F78BE79AE10197F1F786CCF3
:1010E00080E091E069E103C080E291E06FE170E0AF
:1010F0000E947C080E9486080E947A0881E491E0A0
:101100006BE270E00E947C080E947A08FFCF2F9269
:101110003F924F925F926F927F928F929F92AF9287
:10112000BF92CF92DF92EF92FF920F931F93CF93D4
:10113000DF93CDB7DEB726970FB6F894DEBF0FBEAC
:10114000CDBF260145015C011B015C834B83390146
:10115000B701C8010E944B0B8B016C01B4015E8288
:101160004D82C2019101A5010E944B0B5B017C01E4
:10117000A00EB11EEC1CFD1C00E010E0B201C80185
:101180009301A8010E944B0B6B011C01B401C80123
:101190004B805C809201A8010E944B0BC60ED71EAB
:1011A000281E391EC801881F991F9A838983B4019C
:1011B000C8019301A8010E944B0B4B013C016D81BA
:1011C0007E81C8019201A8010E944B0B6C0C7D1C12
:1011D000621D731D29813A81821F931F6A0D7B1D39
:1011E0008E1D9F1D9401A30126960FB6F894DEBFB5
:1011F0000FBECDBFDF91CF911F910F91FF90EF9068
:10120000DF90CF90BF90AF909F908F907F906F9026
:101210005F904F903F902F9008952F923F924F9262
:101220005F926F927F928F929F92AF92BF92CF9276
:10123000DF92EF92FF920F931F937B015A014901B6
:1012400020E030E0F901E819F909D901AA09BB0940
:1012500089010E091F0929016901C80AD90A21E07B
:101260003C01892F882331E00AF0312D303009F418
:101270006301303009F48701C114D10409F042C080
:10128000C80196958795802B912BAC015695479573
:1012900056954795482B592BBA01729562956F70F8
:1012A00067277F706727642B752BCB01892F9927C0
:1012B000862B972B80959095AC0156954795457553
:1012C0005575841B950BAC014373537396958795A5
:1012D0009695879583739373840F951FAC015295F0
:1012E00042954F7045275F704527480F591F4F7033
:1012F0005F70CA01892F9927840F951F90704096BF
:101300001C0140C0C601969587958C299D29BC017A
:101310007695679576956795682B792BAB015295F5
:1013200042954F7045275F704527462B572BCA01C2
:10133000892F9927842B952B80959095AC015695F4
:10134000479545755575841B950BAC01569547958A
:10135000569547958373937343735373480F591F7F
:10136000CA01929582958F7089279F708927840F73
:10137000951F8F709F70AC01452F5527480F591F3F
:1013800050701A01303009F4D501303009F4F401FD
:10139000A115B10509F041C0CF01969587958E2B17
:1013A0009F2BAC015695479556954795482B592B41
:1013B000BA01729562956F7067277F706727642BFB
:1013C000752BCB01892F9927862B972B809590958C
:1013D000AC015695479545755575841B950BAC0129
:1013E00043735373969587959695879583739373F7
:1013F000840F951FAC01529542954F7045275F7041
:101400004527480F591F4F705F70CA01892F9927D0
:10141000840F951F907040963FC0CD01969587959B
:101420008A2B9B2BAC015695479556954795482B93
:10143000592BBA01729562956F7067277F70672785
:10144000642B752BCB01892F9927862B972B8095A1
:101450009095AC015695479545755575841B950B30
:10146000AC0156954795569547958373937343738F
:101470005373480F591FBA01729562956F706727B1
:101480007F706727640F751F6F707F70CB01892F86
:101490009927860F971F9070805E9F4F0115110549
:1014A000A201C406D50609F4212D203009F41C013F
:1014B000C101582F5F7320305030B1F0912D212D94
:1014C000312D8B2F880F812D881F000F111FCC1CF1
:1014D000DD1CC22AD32A082B192BEE0FFF1FAA1FCF
:1014E000BB1F5A95503069F741E081149104920175
:1014F000A206B306E206F306C3018207930709F0CA
:10150000412D417036942794812D8795922DF12C91
:10151000E12C20E83EE55201B5016E197F09280B48
:10152000390B4030C50109F4CB01B301607070780C
:10153000403009F42901212F3C2D4D2D512D6B01F7
:10154000C42AD52A820F931FC41CD51C6F2F7A2F53
:10155000AB2FB12D102F012DF12CE12C0A2B1B2BC1
:10156000E62AF72AEE2AFF2A612F660F612D661FF1
:10157000712DE12DF12D20953095262337234095AF
:1015800050954E235F23E21AF30A040B150B110F3B
:10159000612D661F712D212D312D680F791F2C1D96
:1015A0003D1DC9011F910F91FF90EF90DF90CF90EB
:1015B000BF90AF909F908F907F906F905F904F9073
:1015C0003F902F9008950E940D0908959C01A90154
:1015D0005F7780E89FE3E1E06115710548075907EF
:1015E00008F0E12DE17080E090E0E03011F0BC0106
:1015F0000895A0E0BFE4E1E0611571054A075B07CB
:1016000008F0E12DE170E030A9F0F22FE72F562F1E
:10161000412DF068220F632F661F212D221F2EE11E
:10162000261B2F712030E1F0F695E79557954795E9
:101630002A95F8CFE0E8FFE781E0613071054E07B9
:101640005F0708F0812D81708030D9F0330F660B71
:10165000762F8FEF9FE786279727609570950895DF
:10166000BC01641B750B8E0B9F0B21E033230AF02A
:10167000212D2170203009F4CF01203081F7BA01EB
:10168000089560E070E0CB0108950E94E60A089595
:101690000E9487080895DB018F939F930E947D0B22
:1016A000BF91AF91A29F800D911DA39F900DB29FFE
:1016B000900D11240895A1E21A2EAA1BBB1BFD0157
:1016C0000DC0AA1FBB1FEE1FFF1FA217B307E40721
:1016D000F50720F0A21BB30BE40BF50B661F771F79
:1016E000881F991F1A9469F7609570958095909559
:1016F0009B01AC01BD01CF0108950E945F0CA59F25
:10170000900DB49F900DA49F800D911D11240895FC
:10171000689401C0E894F92FF12B12F00C94BC0BE3
:10172000A0E0B0E0E6E9FBE00C942E0C092E059455
:1017300022F40E94180C112392F4F0E80F26FFEF18
:10174000E094F09400951095B094C094D094A19436
:10175000BF0ACF0ADF0AEF0AFF0A0F0B1F0B0E9416
:10176000C70B07FC0E94180CCDB7DEB7ECE00C9459
:101770004A0C689401C0E8948F929F92CF93DF93B4
:101780000E94C70BDF91CF919F908F90089588247E
:101790009924F401E401B0E49F93AA279A158B04DD
:1017A0009C04ED05FE05CF05D007A10798F4AD2FE9
:1017B000DC2FCF2FFE2FE92D982C892E982F872FE5
:1017C000762F652F542F432F322F2227B85031F711
:1017D000BF9127C01B2EBF91BB27220F331F441F71
:1017E000551F661F771F881F991F881C991CEE1FA5
:1017F000FF1FCC1FDD1FAA1FBB1F8A149B04EC0513
:10180000FD05CE05DF05A007B10748F08A189B0843
:10181000EC09FD09CE09DF09A00BB10B21601A9478
:10182000E1F62EF49401AF01BE01CD01000C089544
:10183000609570958095909530954095509521953F
:101840003F4F4F4F5F4F6F4F7F4F8F4F9F4F0895C9
:101850002F923F924F925F926F927F928F929F92C0
:10186000AF92BF92CF92DF92EF92FF920F931F93AE
:10187000CF93DF93CDB7DEB7CA1BDB0B0FB6F8945F
:10188000DEBF0FBECDBF09942A88398848885F849F
:101890006E847D848C849B84AA84B984C884DF8010
:1018A000EE80FD800C811B81AA81B981CE0FD11DF4
:1018B0000FB6F894DEBF0FBECDBFED010895A29F15
:1018C000B001B39FC001A39F700D811D1124911D14
:1018D000B29F700D811D1124911D08950E94820CEC
:1018E0000C94F70C0E94F00C58F00E94E90C40F0A8
:1018F00029F45F3F29F00C94E00C51110C942B0D4E
:101900000C94E60C0E94080D68F39923B1F355235B
:1019100091F3951B550BBB27AA2762177307840702
:1019200038F09F5F5F4F220F331F441FAA1FA9F398
:1019300035D00E2E3AF0E0E832D091505040E69586
:10194000001CCAF72BD0FE2F29D0660F771F881FE7
:10195000BB1F261737074807AB07B0E809F0BB0BDA
:10196000802DBF01FF2793585F4F3AF09E3F5105EE
:1019700078F00C94E00C0C942B0D5F3FE4F3983E50
:10198000D4F3869577956795B795F7959F5FC9F7D7
:10199000880F911D9695879597F90895E1E0660F58
:1019A000771F881FBB1F621773078407BA0720F0D1
:1019B000621B730B840BBA0BEE1F88F7E09508953A
:1019C00097F99F6780E870E060E008959FEF80ECF2
:1019D000089500240A941616170618060906089595
:1019E00000240A9412161306140605060895092EFB
:1019F0000394000C11F4882352F0BB0F40F4BF2B6A
:101A000011F460FF04C06F5F7F4F8F4F9F4F0895A9
:101A100057FD9058440F551F59F05F3F71F047959F
:101A2000880F97FB991F61F09F3F79F08795089584
:101A3000121613061406551FF2CF4695F1DF08C0A3
:101A4000161617061806991FF1CF869571056105C0
:101A500008940895E894BB2766277727CB0197F968
:101A600008950E943B0D08F48FEF08950E943B0DEE
:101A7000880B990B0895990F0008550FAA0BE0E801
:101A8000FEEF16161706E807F907C0F01216130640
:101A9000E407F50798F0621B730B840B950B39F480
:101AA0000A2661F0232B242B252B21F408950A26E6
:101AB00009F4A140A6958FEF811D811D0895F8942A
:021AC000FFCF56
:101AC200617474656D707420746F206469766964E2
:101AD20065206279207A65726F00000000000000C4
:101AE200617474656D707420746F206469766964C2
:101AF200652077697468206F766572666C6F77F41B
:101B02003F63616C6C656420604F7074696F6E3AFC
:101B12003A756E77726170282960206F6E2061209D
:0C1B2200604E6F6E65602076616C75652A
:00000001FF
