:100000000C9434000C9451000C9451000C94510049
:100010000C9451000C9451000C9451000C9451001C
:100020000C9451000C9451000C9451000C9451000C
:100030000C9451000C9451000C9451000C945100FC
:100040000C9451000C9451000C9451000C945100EC
:100050000C9451000C9451000C9451000C945100DC
:100060000C9451000C94510011241FBECFEFD8E026
:10007000DEBFCDBF11E0A0E0B1E0E0E2F8E102C0F8
:1000800005900D92AC36B107D9F721E0ACE6B1E0AE
:1000900001C01D92AD36B207E1F70E9451040C94E5
:1000A0000E0C0C940000EF92FF920F931F9324EA22
:1000B0002093BC002091BC002223E2F72091B900DC
:1000C000269526952695322F3A95323040F02030ED
:1000D00009F4CAC0273009F4C5C084E0C6C02CEEBC
:1000E0002093BB0024E82093BC002091BC00222375
:1000F000E2F72091B900269526952695273044F4FD
:10010000203009F4B1C0233061F0243031F76CC0E5
:10011000273009F4A7C0293009F466C0283009F057
:10012000DCCF7B01E0E0F0E024E8E130F10509F408
:1001300022C0DC01AE0FBF1F3C913093BB00209367
:10014000BC003091BC003323E2F731963091B90006
:10015000369536953695353041F3303009F484C004
:10016000373009F47FC0363009F0B7CF84E9809387
:10017000BC0082E07AC084EA8093BC008091BC001D
:100180008823E2F78091B900869586958695982F09
:100190009A959230FA0138F0803009F465C08730C2
:1001A00009F460C09ACF8DEE8093BB0084E8809301
:1001B000BC008091BC008823E2F78091B90086954D
:1001C00086958695873044F4803009F44DC083309D
:1001D00081F0843049F081CF873009F443C0883002
:1001E00041F0893009F079CF84E98093BC0081E047
:1001F0003CC097012E0F3F1F319780E090E044E80C
:1002000054EC8E179F0739F44093BC006091BC00FA
:100210006623E2F706C05093BC006091BC006623E1
:10022000E2F76091B900669566956695762F7A50EB
:10023000723098F401968F01D701FD0131966091DB
:10024000BB006C93E217F3077F01F80109F0D9CFE7
:1002500084E98093BC0085E008C0603029F06730F5
:1002600009F03BCF812D01C083E01F910F91FF90DA
:10027000EF9008952F923F924F925F926F927F92EC
:100280008F929F92AF92BF92CF92DF92EF92FF92A6
:100290000F931F93CF93DF93CDB7DEB76E970FB653
:1002A000F894DEBF0FBECDBF7E8B6D8B5C8B4B8B0E
:1002B000988F8F8BFC01628D738D408D518DFA8FDD
:1002C000E98F872F880F880B982F4050544F9A0141
:1002D0003C8F2B8F61407040AB015E8F4D8FBC0116
:1002E000604070401B01804090402C01A084B1848C
:1002F0006501DD0CDD08CD2C8D2D880FEE08FE2C60
:10030000C20187010E948A093E832D834295242FD2
:100310002F70529525275F705C834B832527352FDF
:10032000412D512D8295807F72958727707F872779
:1003300062957627607F7627982E872E762E612C01
:10034000622A732A842A952AAB8CBC8C9501CD8CA9
:10035000DE8CA601B101C201388A2F8671015A8A4A
:10036000498A82010E948A09E98DFA8DA284B384A8
:100370006501DD0CDD08CD2CED2DEE0FEE08FE2C19
:100380003E872D875C874B877A87698798878F831D
:1003900087010E948A09FC01962F812DB12DA12D84
:1003A000032F142FE52EF12C0A2B1B2BE82AF92AF8
:1003B0002B813C81207F8D819E8192952927907F82
:1003C000292782959827807F9827522F492F382FE9
:1003D000212D9F2F990F990B672F7E2F8F2F200F85
:1003E000311F4E1D5F1D661D771D881D991D6050B4
:1003F00070488F4F9F4FE98DFA8DA680B78000E03F
:1004000010E0680178010E948A091C0182E090E0F6
:10041000E1E02115310540075107680779072006FB
:10042000310608F0E12DE170ED83832D880F880BF4
:100430009A83898335942794779567957C836B831A
:10044000EF89F88DFA8FE98FA684B7846501DD0CFA
:10045000DD08CD2C8D2D880FEE08FE2C2B8D3C8DCC
:100460004D8D5E8D6F85788989899A8987010E9473
:100470008A0939014B01872D880F441F551F812D93
:10048000881F912D880C991C512C412C442A552AE7
:10049000882A992AE98DFA8DA088B1886501DD0C3A
:1004A000DD08CD2C8D2D880FEE08FE2C2D853E8588
:1004B0004B855C8569857A858F81988587010E9447
:1004C0008A09CB88DC88EC2DE695B12CB794A12C59
:1004D000B12DA12DED88FE88F694E794D794C794AA
:1004E000A20FB31FA41EB51EC61ED71EE81EF91EFE
:1004F000E98DFA8D848595858C01110F110B012FE3
:10050000880F991F001F111F880F991F001F111FAF
:10051000880F991F001F111F8C0D9D1D0E1D1F1D83
:10052000660C771C512D412D4A0F5B1F6A1C7B1CEA
:10053000841D951D081D191D20E030E06901241B54
:10054000350BA60146095709B601680B790BC601A0
:10055000800B910BE5E3FCE05F01760186010E94D0
:100560008A09ED81E03009F057C188559E49A0E025
:10057000B0E8E1E0211531054C055D056C057D0510
:100580008A079B0709F4E12DE980FA80FE2CE170CF
:10059000E0308F88988C0B811C8191F4FFEFAFEFD6
:1005A000BFEFE1E00F3F1F072A063B06EA06FB0606
:1005B000EA06FB0609F0E12DE170E03009F030C1F8
:1005C0005801610187010E94CC093C8F2B8FE62FD7
:1005D000EE0FF72FDB01BC8BAB8BFF1FEE0FFF1F66
:1005E000EE0FFF1F712D612D232F22952F705A8F33
:1005F000498F342F329523273F702327452F42956B
:1006000034274F703427469537952795512D262B43
:10061000372B4E2B5F2B9E8B8D8B192F110F110BB0
:10062000092F0595F82EF794EB2EE7940595F7948E
:10063000E7940595F794E7940595F794E794059565
:10064000F794E794B701C80159016A010E948A0929
:10065000F401FE8FED8FA688B7886501DD0CDD08FB
:10066000CD2CED2DEE0FEE08FE2C87010E948A099D
:10067000292F2695879577956795212D2795F82F12
:10068000E72F362F5695852E912C612C712C822ABE
:10069000932A6E2A7F2A592E550C55089595492E76
:1006A000252C352C2B8D3C8D820E931E498D5A8D19
:1006B000641E751E6B897C89461E571E8D899E8916
:1006C000281E391EED8DFE8DA488B5886501DD0CD0
:1006D000DD08CD2CED2DEE0FEE08FE2C87010E94DB
:1006E0008A09382F3295307F72953727707F3727E8
:1006F00062957627607F7627660F771F331F272F37
:10070000762F612D56954795569547955695479561
:10071000E12DF12D462B572BE22BF32B392F330FE5
:10072000330B959587959595879595958795232F67
:10073000480D591DE61DF71D841D951D221D331DF5
:10074000782F612DB12DA12DC52EDE2EAF2EB12C0F
:10075000CA2ADB2AA62AB72A132F110F110BE92E5A
:10076000F22E032FED8DFE8D22893389A901550FBD
:10077000550B452FF52FF295AF2FAF70B12D812C72
:10078000912C550F660B562F5295852F807F6295C1
:10079000982F9627607F962756275827852F792FE1
:1007A0006A2B7B2B88299929F07F4295F427407F7B
:1007B000F42732954327307F432722953227207F25
:1007C0003227E42F2C0D3D1DEA1DFB1D6E1D7F1DE4
:1007D000801F911FAF010E94250920E030E04AE709
:1007E00058E40E94B00A6E960FB6F894DEBF0FBEB2
:1007F000CDBFDF91CF911F910F91FF90EF90DF90D0
:10080000CF90BF90AF909F908F907F906F905F90B0
:100810004F903F902F90089580E091E069E103C0F0
:1008200080E291E06FE170E00E94BE060F931F939B
:10083000CF93DF93CDB7DEB725970FB6F894DEBF21
:100840000FBECDBF1B8200E010E01A8309838C83AA
:10085000CE010496BE016F5F7F4F43E050E00E94DF
:1008600053008530D1F48A819927302F292F982F72
:10087000812D4B81642F7727682B792B89819927CC
:10088000822B932B25960FB6F894DEBF0FBECDBFFB
:10089000DF91CF911F910F910895CE0105960E948F
:1008A000C6060E9453042F923F924F925F926F921E
:1008B0007F928F929F92AF92BF92CF92DF92EF92F0
:1008C000FF920F931F93CF93DF93CDB7DEB7E797D8
:1008D0000FB6F894DEBF0FBECDBF8FB7F8949091DE
:1008E0006C01903009F041C291E090936C018FBF90
:1008F0002D98259A5998519A82E290E09093C500DC
:100900008093C40082E08093C00088E18093C1009E
:1009100086E08093C2003C98449A3D98459A88E9C5
:100920008093B8001092B90000E010E01E870D8798
:1009300088E88DA7CE018D96BE01635F7F4F42E0B0
:1009400050E03A010E9453008D859E859C878B87DD
:100950001E870D878AE88DA7CE018D96BE01635F45
:100960007F4FA3010E9453008D859E859A878987BA
:100970001E870D878CE88DA7CE018D96BE01635F23
:100980007F4FA3010E9453008D859E8598878F839A
:100990001E870D878EE88DA7CE018D96BE01635F01
:1009A0007F4FA3010E9453008D859E859E838D837A
:1009B0001E870D8780E98DA7CE018D96BE01635FEE
:1009C0007F4FA3010E9453008D859E859C838B835E
:1009D0001E870D8782E98DA7CE018D96BE01635FCC
:1009E0007F4FA3010E9453008D859E859A83898342
:1009F0001E870D8784E98DA7CE018D96BE01635FAA
:100A00007F4FA3010E9453002D843E841E870D87D3
:100A100086E98DA7CE018D96BE01635F7F4FA3014E
:100A20000E945300ED84FE841E870D8788E98DA700
:100A3000CE018D96BE01635F7F4FA3010E945300DC
:100A4000CD84DE841E870D878AE98DA7CE018D9621
:100A5000BE01635F7F4FA3010E945300AD84BE843B
:100A60001E870D878CE98DA7CE018D96BE01635F31
:100A70007F4FA3010E9453008D849E841E870D87A3
:100A80008EE98DA7CE018D96BE01635F7F4F2C014D
:100A9000A3010E9453008D859E851CA70BA71AA752
:100AA00009A718A70FA31EA30DA39CA38BA39AA20B
:100AB00089A2B8A2AF8EDE8ECD8EFC8EEB8E3A8EE2
:100AC000298E89819A81988F8F8B8B819C819E8BB7
:100AD0008D8B8D819E819C8B8B8B8F8198859A8B42
:100AE000898B89859A85988B8F878B859C859E8736
:100AF0008D8784EA8093BC008091BC008823E2F754
:100B00008091B9008695869586958A95823008F001
:100B10003DC08CEE8093BB0084E88093BC00809144
:100B2000BC008823E2F78091B9008695869586956A
:100B3000883034F4833039F0843009F424C026C07E
:100B4000883009F015C160E070E084E8FB01E23014
:100B5000F10509F41FC0DF01A15CBE4F9C91909389
:100B6000BB008093BC009091BC009923E2F73196C2
:100B70009091B900969596959695953060E070E0C5
:100B800031F3963019F484E98093BC00CE018D9640
:100B90000E94C60684E98093BC00CE010D969C8716
:100BA0008B878AEF4B010E9416048B017C0187EF33
:100BB0000E9416046B015C016B847C84C301A80154
:100BC000B7010E943A01C301A601B5010E943A0192
:100BD000940148EC52E40E94780B6B015C01940193
:100BE00040E05FEC0E94730B182FB601C5010E9414
:100BF00087097C01812F88230AF04B01B601C501CA
:100C00002FEF3FEF39014FEF5EE40E94730B082F87
:100C100010160CF03401B601C5019601A5010E9421
:100C2000E50B803040E050E09A0109F49301112374
:100C3000E0E0F0E80AF0F70110166FEF7FE70CF044
:100C4000BF0180304A0109F44B018A01021B130BDA
:100C50007A01E808F908892D88230AF08901892D8D
:100C600088230AF07401B801C7012AE030E00E942D
:100C70009D0940E050E060636FAB81E00A301105F0
:100C8000E406F50608F0812D817080308AE090E05E
:100C90001C0109F028C01C01B801C7012AE030E09E
:100CA00039010E949D0969015A01B601C5019301EC
:100CB00040E050E00E949D096063C1010197D201AC
:100CC0001C01A80FB91F6C9340E050E081E004368E
:100CD0001105E406F50608F0812D8170803086014B
:100CE000750109F4D9CF81E099200AF0812D817036
:100CF0008030F10199F03197D201AE0FBF1F8DE224
:100D00008C930CC0D201AE0FBF1F8C919091C0008C
:100D100090729030D9F38093C6003196EB30F10594
:100D200089F78091C00080728030D9F38AE0809387
:100D3000C60060E070E0CB019B01A7EFBFE3FD01BF
:100D40003197F1F741E0873191052607370708F021
:100D5000412D41708F5F9F4F2F4F3F4F403079F7AC
:100D60008BE79AE10197F1F71CCF8FBF0E94C00675
:100D7000893009F408CF0ACF0E94C8060E94BC0639
:100D800081E491E06BE270E00E94BE060E94BC0626
:100D9000FFCF2F923F924F925F926F927F928F92EE
:100DA0009F92AF92BF92CF92DF92EF92FF920F93FA
:100DB0001F93CF93DF93CDB7DEB726970FB6F89486
:100DC000DEBF0FBECDBF260145015C011B015C8368
:100DD0004B833901B701C8010E948D098B016C0159
:100DE000B4015E824D82C2019101A5010E948D096C
:100DF0005B017C01A00EB11EEC1CFD1C00E010E0AC
:100E0000B201C8019301A8010E948D096B011C0168
:100E1000B401C8014B805C809201A8010E948D0939
:100E2000C60ED71E281E391EC801881F991F9A8317
:100E30008983B401C8019301A8010E948D094B0167
:100E40003C016D817E81C8019201A8010E948D093B
:100E50006C0C7D1C621D731D29813A81821F931FBA
:100E60006A0D7B1D8E1D9F1D9401A30126960FB652
:100E7000F894DEBF0FBECDBFDF91CF911F910F91D0
:100E8000FF90EF90DF90CF90BF90AF909F908F90AA
:100E90007F906F905F904F903F902F9008952F928A
:100EA0003F924F925F926F927F928F929F92AF92FA
:100EB000BF92CF92DF92EF92FF920F931F937B012D
:100EC0005A01490120E030E0F901E819F909D90196
:100ED000AA09BB0989010E091F0929016901C80A6C
:100EE000D90A21E03C01892F882331E00AF0312D15
:100EF000303009F46301303009F48701C114D104A2
:100F000009F042C0C80196958795802B912BAC01C2
:100F10005695479556954795482B592BBA0172958A
:100F200062956F7067277F706727642B752BCB01E5
:100F3000892F9927862B972B80959095AC015695F4
:100F4000479545755575841B950BAC0143735373D9
:100F5000969587959695879583739373840F951FC0
:100F6000AC01529542954F7045275F704527480F59
:100F7000591F4F705F70CA01892F9927840F951FE1
:100F8000907040961C0140C0C601969587958C29AB
:100F90009D29BC017695679576956795682B792B89
:100FA000AB01529542954F7045275F704527462B00
:100FB000572BCA01892F9927842B952B80959095C3
:100FC000AC015695479545755575841B950BAC013D
:100FD000569547955695479583739373437353730B
:100FE000480F591FCA01929582958F7089279F706B
:100FF0008927840F951F8F709F70AC01452F55274F
:10100000480F591F50701A01303009F4D5013030A3
:1010100009F4F401A115B10509F041C0CF0196957D
:1010200087958E2B9F2BAC015695479556954795E6
:10103000482B592BBA01729562956F7067277F70A4
:101040006727642B752BCB01892F9927862B972B2C
:1010500080959095AC015695479545755575841BBF
:10106000950BAC0143735373969587959695879529
:1010700083739373840F951FAC01529542954F7003
:1010800045275F704527480F591F4F705F70CA0191
:10109000892F9927840F951F907040963FC0CD01EE
:1010A000969587958A2B9B2BAC015695479556951F
:1010B0004795482B592BBA01729562956F70672737
:1010C0007F706727642B752BCB01892F9927862B7F
:1010D000972B80959095AC0156954795457555751C
:1010E000841B950BAC015695479556954795837390
:1010F000937343735373480F591FBA0172956295E6
:101100006F7067277F706727640F751F6F707F7020
:10111000CB01892F9927860F971F9070805E9F4F74
:1011200001151105A201C406D50609F4212D2030B0
:1011300009F41C01C101582F5F7320305030B1F009
:10114000912D212D312D8B2F880F812D881F000F80
:10115000111FCC1CDD1CC22AD32A082B192BEE0F21
:10116000FF1FAA1FBB1F5A95503069F741E0811439
:1011700091049201A206B306E206F306C3018207B8
:10118000930709F0412D417036942794812D87955E
:10119000922DF12CE12C20E83EE55201B5016E19AB
:1011A0007F09280B390B4030C50109F4CB01B3018D
:1011B00060707078403009F42901212F3C2D4D2DAD
:1011C000512D6B01C42AD52A820F931FC41CD51C34
:1011D0006F2F7A2FAB2FB12D102F012DF12CE12C79
:1011E0000A2B1B2BE62AF72AEE2AFF2A612F660F0D
:1011F000612D661F712DE12DF12D2095309526234F
:101200003723409550954E235F23E21AF30A040BCF
:10121000150B110F612D661F712D212D312D680FBA
:10122000791F2C1D3D1DC9011F910F91FF90EF905B
:10123000DF90CF90BF90AF909F908F907F906F90F6
:101240005F904F903F902F9008950E944F07089510
:101250009C01A9015F7780E89FE3E1E061157105DA
:101260004807590708F0E12DE17080E090E0E03098
:1012700011F0BC010895A0E0BFE4E1E06115710543
:101280004A075B0708F0E12DE170E030A9F0F22F8A
:10129000E72F562F412DF068220F632F661F212D57
:1012A000221F2EE1261B2F712030E1F0F695E795E5
:1012B000579547952A95F8CFE0E8FFE781E0613040
:1012C00071054E075F0708F0812D81708030D9F0DD
:1012D000330F660B762F8FEF9FE786279727609552
:1012E00070950895BC01641B750B8E0B9F0B21E05C
:1012F00033230AF0212D2170203009F4CF01203052
:1013000081F7BA01089560E070E0CB0108950E9472
:10131000280908950E94C9060895DB018F939F93C1
:101320000E94BF09BF91AF91A29F800D911DA39F05
:10133000900DB29F900D11240895A1E21A2EAA1BC0
:10134000BB1BFD010DC0AA1FBB1FEE1FFF1FA21775
:10135000B307E407F50720F0A21BB30BE40BF50B72
:10136000661F771F881F991F1A9469F760957095FB
:10137000809590959B01AC01BD01CF0108950E941D
:10138000A10AA59F900DB49F900DA49F800D911D63
:1013900011240895689401C0E894F92FF12B12F0FC
:1013A0000C94FE09A0E0B0E0E8EDF9E00C94700ABE
:1013B000092E059422F40E945A0A112392F4F0E8AF
:1013C0000F26FFEFE094F09400951095B094C09430
:1013D000D094A194BF0ACF0ADF0AEF0AFF0A0F0BCD
:1013E0001F0B0E94090A07FC0E945A0ACDB7DEB7FC
:1013F000ECE00C948C0A689401C0E8948F929F9260
:10140000CF93DF930E94090ADF91CF919F908F9035
:10141000089588249924F401E401B0E49F93AA2755
:101420009A158B049C04ED05FE05CF05D007A10796
:1014300098F4AD2FDC2FCF2FFE2FE92D982C892E7D
:10144000982F872F762F652F542F432F322F222747
:10145000B85031F7BF9127C01B2EBF91BB27220F79
:10146000331F441F551F661F771F881F991F881C35
:10147000991CEE1FFF1FCC1FDD1FAA1FBB1F8A1464
:101480009B04EC05FD05CE05DF05A007B10748F07C
:101490008A189B08EC09FD09CE09DF09A00BB10BE6
:1014A00021601A94E1F62EF49401AF01BE01CD0142
:1014B000000C0895609570958095909530954095B5
:1014C000509521953F4F4F4F5F4F6F4F7F4F8F4F3D
:1014D0009F4F08952F923F924F925F926F927F920B
:1014E0008F929F92AF92BF92CF92DF92EF92FF9234
:1014F0000F931F93CF93DF93CDB7DEB7CA1BDB0BE0
:101500000FB6F894DEBF0FBECDBF09942A88398884
:1015100048885F846E847D848C849B84AA84B9848B
:10152000C884DF80EE80FD800C811B81AA81B98197
:10153000CE0FD11D0FB6F894DEBF0FBECDBFED01AB
:101540000895A29FB001B39FC001A39F700D811D9C
:101550001124911DB29F700D811D1124911D0895BC
:101560000E94C40A0C94390B0E94320B58F00E945E
:101570002B0B40F029F45F3F29F00C94220B511102
:101580000C946D0B0C94280B0E944A0B68F3992362
:10159000B1F3552391F3951B550BBB27AA2762176F
:1015A0007307840738F09F5F5F4F220F331F441F7C
:1015B000AA1FA9F335D00E2E3AF0E0E832D09150B0
:1015C0005040E695001CCAF72BD0FE2F29D0660F9D
:1015D000771F881FBB1F261737074807AB07B0E8E0
:1015E00009F0BB0B802DBF01FF2793585F4F3AF0E6
:1015F0009E3F510578F00C94220B0C946D0B5F3FCD
:10160000E4F3983ED4F3869577956795B795F7956B
:101610009F5FC9F7880F911D9695879597F9089553
:10162000E1E0660F771F881FBB1F621773078407EF
:10163000BA0720F0621B730B840BBA0BEE1F88F7FE
:10164000E095089597F99F6780E870E060E008955D
:101650009FEF80EC089500240A94161617061806CA
:101660000906089500240A941216130614060506A6
:101670000895092E0394000C11F4882352F0BB0F37
:1016800040F4BF2B11F460FF04C06F5F7F4F8F4F9A
:101690009F4F089557FD9058440F551F59F05F3FD5
:1016A00071F04795880F97FB991F61F09F3F79F084
:1016B00087950895121613061406551FF2CF469506
:1016C000F1DF08C0161617061806991FF1CF869588
:1016D0007105610508940895E894BB27662777276C
:1016E000CB0197F908950E94EA0B08F48FEF089553
:1016F0000E948B0B0C94390B0E942B0B38F00E942C
:10170000320B20F0952311F00C94220B0C94280B33
:1017100011240C946D0B0E944A0B70F3959FC1F33A
:10172000950F50E0551F629FF001729FBB27F00D8F
:10173000B11D639FAA27F00DB11DAA1F649F6627E4
:10174000B00DA11D661F829F2227B00DA11D621F33
:10175000739FB00DA11D621F839FA00D611D221FED
:10176000749F3327A00D611D231F849F600D211DD1
:10177000822F762F6A2F11249F5750409AF0F1F054
:1017800088234AF0EE0FFF1FBB1F661F771F881FBD
:1017900091505040A9F79E3F510580F00C94220BC8
:1017A0000C946D0B5F3FE4F3983ED4F386957795E8
:1017B0006795B795F795E7959F5FC1F7FE2B880F63
:1017C000911D9695879597F908950E94EA0B880BCD
:1017D000990B0895990F0008550FAA0BE0E8FEEF4A
:1017E00016161706E807F907C0F012161306E407E5
:1017F000F50798F0621B730B840B950B39F40A26DE
:1018000061F0232B242B252B21F408950A2609F4BB
:10181000A140A6958FEF811D811D0895F894FFCFFB
:10182000617474656D707420746F20646976696486
:1018300065206279207A65726F0000000000000068
:10184000617474656D707420746F20646976696466
:10185000652077697468206F766572666C6F77F4BF
:101860003F63616C6C656420604F7074696F6E3AA1
:101870003A756E77726170282960206F6E20612042
:0C188000604E6F6E65602076616C7565CF
:00000001FF
