:100000000C9434000C9451000C9451000C94510049
:100010000C9451000C9451000C9451000C9451001C
:100020000C9451000C9451000C9451000C9451000C
:100030000C9451000C9451000C9451000C945100FC
:100040000C9451000C9451000C9451000C945100EC
:100050000C9451000C9451000C9451000C945100DC
:100060000C9451000C94510011241FBECFEFD8E026
:10007000DEBFCDBF11E0A0E0B1E0E6EAF6E102C0EC
:1000800005900D92A230B107D9F721E0A2E0B1E0CE
:1000900001C01D92A330B207E1F70E943A010C940F
:1000A000510B0C940000EF92FF920F931F9324EAE0
:1000B0002093BC002091BC002223E2F72091B900DC
:1000C000269526952695322F3A95323040F02030ED
:1000D00009F4CAC0273009F4C5C084E0C6C02CEEBC
:1000E0002093BB0024E82093BC002091BC00222375
:1000F000E2F72091B900269526952695273044F4FD
:10010000203009F4B1C0233061F0243031F76CC0E5
:10011000273009F4A7C0293009F466C0283009F057
:10012000DCCF7B01E0E0F0E024E8E130F10509F408
:1001300022C0DC01AE0FBF1F3C913093BB00209367
:10014000BC003091BC003323E2F731963091B90006
:10015000369536953695353041F3303009F484C004
:10016000373009F47FC0363009F0B7CF84E9809387
:10017000BC0082E07AC084EA8093BC008091BC001D
:100180008823E2F78091B900869586958695982F09
:100190009A959230FA0138F0803009F465C08730C2
:1001A00009F460C09ACF8DEE8093BB0084E8809301
:1001B000BC008091BC008823E2F78091B90086954D
:1001C00086958695873044F4803009F44DC083309D
:1001D00081F0843049F081CF873009F443C0883002
:1001E00041F0893009F079CF84E98093BC0081E047
:1001F0003CC097012E0F3F1F319780E090E044E80C
:1002000054EC8E179F0739F44093BC006091BC00FA
:100210006623E2F706C05093BC006091BC006623E1
:10022000E2F76091B900669566956695762F7A50EB
:10023000723098F401968F01D701FD0131966091DB
:10024000BB006C93E217F3077F01F80109F0D9CFE7
:1002500084E98093BC0085E008C0603029F06730F5
:1002600009F03BCF812D01C083E01F910F91FF90DA
:10027000EF9008950E943C012F923F924F925F921F
:100280006F927F928F929F92AF92BF92CF92DF92A6
:10029000EF92FF920F931F93CF93DF93CDB7DEB70B
:1002A0006D970FB6F894DEBF0FBECDBF8FB7F89431
:1002B00090910201903009F0EEC091E0909302011C
:1002C0008FBF2D98259A5998519A82E290E0909389
:1002D000C5008093C40082E08093C00088E18093D1
:1002E000C10086E08093C2003C98449A3D98459AAC
:1002F00088E98093B8001092B90080E090E09B8B71
:100300008A8B5C0188E88D8FCE014D96BE016E5EB2
:100310007F4F02E010E0A8010E945300FA88EB88AA
:10032000BB8AAA8A8AE88D8FCE014D96BE016E5E89
:100330007F4FA8010E945300DA88CB88BB8AAA8A23
:100340008CE88D8FCE014D96BE016E5E7F4FA80169
:100350000E945300BA88AB888EE88D8FCE014D96EF
:10036000BE016E5E7F4FA8010E94530080E98D8F11
:10037000CE014D96BE016E5E7F4FA8010E945300D4
:1003800082E98D8FCE014D96BE016E5E7F4FA80132
:100390000E94530084E98D8FCE014D96BE016E5EA2
:1003A0007F4FA8010E94530086E98D8FCE014D96A4
:1003B000BE016E5E7F4FA8010E94530088E98D8FB9
:1003C000CE014D96BE016E5E7F4FA8010E94530084
:1003D0008AE98D8FCE014D96BE016E5E7F4FA801DA
:1003E0000E9453008CE98D8FCE014D96BE016E5E4A
:1003F0007F4FA8010E9453008EE98D8FCE014D964C
:10040000BE016E5E7F4FA8010E94530084EA809374
:10041000BC008E2D9927EF2DFF272C2D3327AD2DD6
:10042000BB274A2D55270B2D11276091BC00662351
:10043000E2F76091B9006695669566956A956230B7
:1004400008F055C0102F0027042B152B1C870B8795
:10045000BA2FAA27A22BB32BBE87AD87FE2FEE277C
:10046000E82BF92BF88BEF878CEE8093BB0084E8A8
:100470008093BC008091BC008823E2F78091B90092
:1004800086958695869588304CF4833069F0843063
:1004900009F42AC02CC08FBF0E941904893009F4C6
:1004A00023C0883009F023C0A0E0B0E084E8FD015B
:1004B000E230F10509F41FC0DF01A050BF4F9C914D
:1004C0009093BB008093BC009091BC009923E2F70D
:1004D00031969091B9009695969596959530A0E0B5
:1004E000B0E031F3963019F484E98093BC00CE017A
:1004F00042960E941B0484E98093BC008F849888F4
:10050000880C991C98868F828A2F881F9B2F991F91
:100510009E838D83CE0141969A878987CE0142962C
:100520004C018D859E85990F990B892F9C838B8318
:100530008B859C85990F990B892F9A8389831C8AB7
:10054000BB8BAA8B8AEF898B89859A85B40143E09E
:1005500050E02D010E945300853009F062C18C8962
:10056000A82EBB240A891B899B2D96958A2D8795D9
:10057000712F7795602F67959695879577956795F5
:1005800096958795779567952F813885621B730BB4
:100590002D813E81820B930B2D853E854B815C81A5
:1005A0000E94A709F92EFF0CFF089595879577956E
:1005B000959587957795959587957795C72ED82E9C
:1005C000E92E02950F70129501271F700127A501D2
:1005D000429514274F701427529545275F70452781
:1005E0008F859889081B190B40405040B801CA01FB
:1005F00098010E94A709392F330F330B95958795E2
:100600007795959587957795959587957795959510
:1006100087957795672F782F292FC9012B853C85E2
:1006200049815A810E94A7099C01770F221F331F1D
:10063000990B770F221F331F892F881F2C0D3D1D0B
:100640008E1D9F1DB90125E030E0A2010E94A7097F
:1006500060587F4F8F4F9F4F392F330F330B672FCA
:10066000782F292FC9010E944209920148EC52E4D7
:100670000E94F309920140E052EC0E944C08920162
:100680004AEF53E40E94BB0A920140E151E40E9408
:10069000F3096B015C01920140E05FEC0E94B60A35
:1006A000182FB601C5010E94A4097C01812F88235F
:1006B0000AF02B01B601C5012FEF3FEF19014FEFF3
:1006C0005EE40E94B60A082F10160CF01201B60163
:1006D000C5019601A5010E94280B803040E050E042
:1006E0009A0109F491011123E0E0F0E80AF0F70122
:1006F00010166FEF7FE70CF0BF0180302A0109F47C
:100700002B018A01021B130B7A01E408F508852DE1
:1007100088230AF08901852D88230AF07201B80127
:10072000C7012AE030E00E94B70940E050E0606372
:100730006C8F81E00A301105E406F50608F0812D82
:10074000817080308AE090E03C0109F028C03C01D3
:10075000B801C7012AE030E019010E94B709690118
:100760005A01B601C501910140E050E00E94B7096D
:100770006063C3010197D4013C01A80FB91F6C93BA
:1007800040E050E081E004361105E406F50608F08B
:10079000812D817080308601750109F4D9CF81E007
:1007A00055200AF0812D8170803067EF7FE3F301DF
:1007B00099F03197D401AE0FBF1F8DE28C930CC01E
:1007C000D401AE0FBF1F8C919091C00090729030F9
:1007D000D9F38093C6003196EB30F10589F780910B
:1007E000C00080728030D9F38AE08093C600A0E018
:1007F000B0E0CD019D01FB013197F1F741E0873178
:1008000091052A073B0708F0412D41708F5F9F4FEC
:100810002F4F3F4F403079F78BE79AE10197F1F77F
:100820008ECECE014D960E941B040E941D040E9494
:1008300015040E9417040E941504FFCF2F923F92C7
:100840004F925F926F927F928F929F92AF92BF92E0
:10085000CF92DF92EF92FF920F931F936A015C0198
:10086000F501FF77DF01A058BF4780E890E841E03D
:1008700061307105A807B90708F0412D4170D60114
:10088000BF77403009F059C08D0100581F4741E043
:10089000213031050807190708F0412D417040301B
:1008A00009F04BC041E062177307EA07FB0781E0DC
:1008B00008F0812D81708030F60109F4F501803057
:1008C000790109F47B019E2F990F3F01EF2FEE1F55
:1008D000F12DFF1FDF01B07000E010E0E115B10560
:1008E0000007110709F0412D8030850109F48601C8
:1008F0004170803009F4B901802F880FE12FEE1F7D
:10090000F12DFF1FF07093012F773070403009F008
:1009100033C080E090E04C0114010F77107081E04B
:10092000E115F1058804990409F4812D8170803066
:1009300009F467C02401C1016EC180E89FE741E06E
:1009400061307105E807F90708F4412D4170403026
:1009500021F0E064AB018F017BC341E02130310520
:10096000A807B90708F4412D4170403009F48EC042
:10097000A064A9018D016CC32115310509F0A4C043
:10098000C701969587958E299F29AC015695479565
:1009900056954795482B592BDA01B295A295AF7021
:1009A000AB27BF70AB27A42BB52BCD01892F99277F
:1009B0008A2B9B2B80959095AC0156954795457554
:1009C0005575841B950BAC014373537396958795AE
:1009D0009695879583739373840F951FAC015295F9
:1009E00042954F7045275F704527480F591F4F703C
:1009F0005F70CA01892F9927840F951F90704096C8
:100A0000A2C00115110509F0B3C0CB0196958795D9
:100A1000862B972BAC015695479556954795482BB5
:100A2000592BFA01F295E295EF70EF27FF70EF274F
:100A3000E42BF52BCF01892F99278E2B9F2B8095A7
:100A40009095AC015695479545755575841B950B4A
:100A5000AC014373537396958795969587958373E9
:100A60009373840F951FAC01529542954F704527A3
:100A70005F704527480F591F4F705F70CA01892F5B
:100A80009927840F951F90704096B1C041E0611581
:100A90007105E807F90709F0412D4170403009F46C
:100AA0001DC1CA24DB242627372740E050E881E017
:100AB00021153105C406D50609F0812D81708030DD
:100AC00009F0D0C18501D0C1C90196958795822BC7
:100AD000932BAC015695479556954795482B592B26
:100AE000DA01B295A295AF70AB27BF70AB27A42BEC
:100AF000B52BCD01892F99278A2B9B2B809590951B
:100B0000AC015695479545755575841B950BAC0101
:100B100043735373969587959695879583739373CF
:100B2000840F951FAC01529542954F7045275F7019
:100B30004527480F591F4F705F70CA01892F9927A9
:100B4000840F951F9070A9E0B0E0A81BB90B40E09E
:100B500050E04A01404050401A01885E8F71803059
:100B600009F4DBCEEE0CFF1C221F331F8A95F7CF52
:100B7000C80196958795802B912BAC01569547958A
:100B800056954795482B592BFA01F295E295EF704F
:100B9000EF27FF70EF27E42BF52BCF01892F992743
:100BA0008E2B9F2B80959095AC015695479545755A
:100BB0005575841B950BAC014373537396958795BC
:100BC0009695879583739373840F951FAC01529507
:100BD00042954F7045275F704527480F591F4F704A
:100BE0005F70CA01892F9927840F951F9070E9E0E3
:100BF000F0E0E81BF90B40E050E040405040885ED8
:100C00008F71803031F0660F771F001F111F8A959A
:100C1000F8CFC1012A0141E0AE17BF0742018405A8
:100C2000950509F0412D41702D01AE1BBF0B8809C0
:100C30009909CA24DB24660F771F001F111F660F56
:100C4000771F001F111F660F771F001F111F1460F1
:100C5000EE0CFF1C221F331FEE0CFF1C221F331F44
:100C6000EE0CFF1C221F331F403009F035C041E05D
:100C7000A032B1055C0180E090E0A806B90608F05A
:100C8000412D4170403009F423C08A2F81958F7126
:100C900080305B01480140E050E049F05B014801D1
:100CA000AA0CBB1C881C991C8A958030C9F7A030FF
:100CB00009F422C0D201EA1BE39581E0E03009F09B
:100CC000812D16950795779567958130A9F715C001
:100CD00061E070E000E010E0D2011AC041E02115AF
:100CE0003105A807B90709F0412D4170403009F4DA
:100CF000BFC0A9018601ACC1D20181E0A114B10439
:100D00008406950609F4812D81709070682B792BEB
:100D100081E0DD200AF4812D3460A3014070507819
:100D20006A0181708030B1F0E60EF71E021F131FBA
:100D300098012070387081E01114110440E050E0F7
:100D40002407350709F0812D8170803009F465C0D2
:100D5000B70177C0E61AF70A200B310B81E0E114E6
:100D6000F10440E050E02407350709F0812D81703F
:100D7000803009F060C040E054E081E0E114F1040B
:100D80002407350708F4812D8170803009F055C0A3
:100D90002115310509F08AC0C701969587958E29DE
:100DA0009F29AC015695479556954795482B592B49
:100DB000BA01729562956F7067277F706727642B01
:100DC000752BCB01892F9927862B972B8095909592
:100DD000AC015695479545755575841B950BAC012F
:100DE00043735373969587959695879583739373FD
:100DF000840F951FAC01529542954F7045275F7047
:100E00004527480F591F4F705F70CA01892F9927D6
:100E1000840F951F9070409688C0AF5FBF4F9101BF
:100E20002F4F3F4F16950795F794E79461707070B8
:100E30006E297F2907C08A010BC1B701890140E0F3
:100E400050E0910181E0AF3FB105F901240735077A
:100E50000CF4812D8170803009F483C08601006814
:100E60001F67F6C000EC1FE78030E9F4AB01F0C06B
:100E700080E090E041E061157105E807F90709F0AD
:100E8000412D4170403009F0F6C041E02115310597
:100E9000A807B90709F0412D41704030AB01850129
:100EA00009F400CDD5C040E050E0D2C0C90196950C
:100EB0008795822B932BAC01569547955695479570
:100EC000482B592BBA01729562956F7067277F7016
:100ED0006727642B752BCB01892F9927862B972B9E
:100EE00080959095AC015695479545755575841B31
:100EF000950BAC014373537396958795969587959B
:100F000083739373840F951FAC01529542954F7074
:100F100045275F704527480F591F4F705F70CA0102
:100F2000892F9927840F951F90708550904040E03D
:100F300050E040405040803059F0E82FB70189011F
:100F4000660F771F001F111FEA95E030C9F702C036
:100F5000B7018901A81BB90B240A350AF10140E049
:100F600050E081E01A161B064E075F070CF4812D36
:100F70008170803011F49A012AC021E030E02A1BF0
:100F80003B0BAA95AF71A030AB01F80149F0AB0162
:100F9000F801440F551FEE1FFF1FAA95A030C9F797
:100FA0002F71203031F016950795779567952A9522
:100FB000F8CF81E04115510520E030E0E207F3076A
:100FC00009F4812D81709070682B792BD901AB01C8
:100FD0004770507081E0453051052207330708F40F
:100FE000812D8170B695A795E12DE795FA2F312DCA
:100FF000212D169507957795679516950795779501
:1010000067951695079577956795262B372B0F775C
:1010100010700E2B1F2B0C291D29803029F02F5FFB
:101020003F4F0F4F1F4F13C081E04430510540E048
:1010300050E02A014404550409F0812D817080306C
:1010400031F061707070260F371F041D151DA90146
:10105000BA01C8011F910F91FF90EF90DF90CF90E0
:10106000BF90AF909F908F907F906F905F904F90C8
:101070003F902F90089541E021153105A807B90749
:1010800009F0412D41704030A901860109F3262362
:101090003723CA20DB202DCE0E941E040895CF9254
:1010A000DF92EF92FF920F931F939B0160E070E03D
:1010B00041E0211531058607970709F0412D417060
:1010C000403009F052C0AB01421B530B680B790B47
:1010D000E92FFE2FFF230AF0BC01EE230AF0A9013D
:1010E0006115710509F043C09A0136952795242BA7
:1010F000352BF901F695E795F695E795E22BF32B5D
:10110000DF01B295A295AF70AB27BF70AB27AE2BB6
:10111000BF2B9D01232F33272A2B3B2B2095309566
:10112000F901F695E795E575F5752E1B3F0BF9016D
:10113000E373F373369527953695279523733373A9
:101140002E0F3F1FD901B295A295AF70AB27BF708C
:10115000AB27A20FB31FAF70BF70FD01EF2FFF27AA
:10116000EA0FFB1FF070709641C09B0180C09B018D
:1011700036952795262B372BF901F695E795F695A9
:10118000E795E22BF32BDF01B295A295AF70AB2769
:10119000BF70AB27AE2BBF2B9D01232F33272A2BEC
:1011A0003B2B20953095F901F695E795E575F5759A
:1011B0002E1B3F0BF901F695E795F695E7952373FE
:1011C0003373E373F373E20FF31F9F01329522959C
:1011D0002F7023273F7023272E0F3F1F2F703F7044
:1011E000F901EF2FFF27E20FF31FF070E03051F00D
:1011F000AE2F9B01440F551F221F331FAA95A0300D
:10120000C9F701C09B01652F722F232F312DDB0100
:10121000A095B095542F412D112D012DF52EFF0CC9
:10122000E12CEE1CF12CC12CD12CEA22FB22D9019D
:10123000A095B095AC21BD210E191F094A0B5B0B7F
:10124000550F412D441F512DA12DB12DF695E79538
:10125000012D07951E2FF12DE12D6E1B7F0B200B0D
:10126000310B640F751F2A1F3B1F2058314B8070B4
:101270009078822B932B1F910F91FF90EF90DF902E
:10128000CF9008950E944F0808959C01A9015F77AF
:1012900080E89FE3E1E0611571054807590708F010
:1012A000E12DE17080E090E0E03011F0BC010895A4
:1012B000A0E0BFE4E1E0611571054A075B0708F0B3
:1012C000E12DE170E030A9F0F22FE72F562F412DEC
:1012D000F068220F632F661F212D221F2EE1261B8F
:1012E0002F712030E1F0F695E795579547952A95AF
:1012F000F8CFE0E8FFE781E0613071054E075F0756
:1013000008F0812D81708030D9F0330F660B762F75
:101310008FEF9FE786279727609570950895BC010A
:10132000641B750B8E0B9F0B21E033230AF0212DDC
:101330002170203009F4CF01203081F7BA010895DF
:1013400060E070E0CB0108950E9445090895DB013B
:101350008F939F930E94D909BF91AF91A29F800D57
:10136000911DA39F900DB29F900D11240895A1E2AD
:101370001A2EAA1BBB1BFD010DC0AA1FBB1FEE1F0F
:10138000FF1FA217B307E407F50720F0A21BB30B5A
:10139000E40BF50B661F771F881F991F1A9469F7D6
:1013A00060957095809590959B01AC01BD01CF0132
:1013B00008950E94E409A59F900DB49F900DA49FED
:1013C000800D911D11240895A29FB001B39FC0010B
:1013D000A39F700D811D1124911DB29F700D811D61
:1013E0001124911D08950E94070A0C947C0A0E9402
:1013F000750A58F00E946E0A40F029F45F3F29F008
:101400000C94650A51110C94B00A0C946B0A0E945A
:101410008D0A68F39923B1F3552391F3951B550B6E
:10142000BB27AA2762177307840738F09F5F5F4FB7
:10143000220F331F441FAA1FA9F335D00E2E3AF0F6
:10144000E0E832D091505040E695001CCAF72BD00E
:10145000FE2F29D0660F771F881FBB1F261737075F
:101460004807AB07B0E809F0BB0B802DBF01FF2791
:1014700093585F4F3AF09E3F510578F00C94650AFF
:101480000C94B00A5F3FE4F3983ED4F386957795C9
:101490006795B795F7959F5FC9F7880F911D96954A
:1014A000879597F90895E1E0660F771F881FBB1FA6
:1014B000621773078407BA0720F0621B730B840B53
:1014C000BA0BEE1F88F7E095089597F99F6780E8BB
:1014D00070E060E008959FEF80EC089500240A9486
:1014E0001616170618060906089500240A941216FF
:1014F0001306140605060895092E0394000C11F432
:10150000882352F0BB0F40F4BF2B11F460FF04C0DE
:101510006F5F7F4F8F4F9F4F089557FD9058440F37
:10152000551F59F05F3F71F04795880F97FB991F42
:1015300061F09F3F79F087950895121613061406FF
:10154000551FF2CF4695F1DF08C01616170618068C
:10155000991FF1CF86957105610508940895E89467
:10156000BB2766277727CB0197F908950E942D0B9B
:1015700008F48FEF08950E94CE0A0C947C0A0E9412
:101580006E0A38F00E94750A20F0952311F00C9431
:10159000650A0C946B0A11240C94B00A0E948D0AFF
:1015A00070F3959FC1F3950F50E0551F629FF001B6
:1015B000729FBB27F00DB11D639FAA27F00DB11DCF
:1015C000AA1F649F6627B00DA11D661F829F222758
:1015D000B00DA11D621F739FB00DA11D621F839FDF
:1015E000A00D611D221F749F3327A00D611D231FB5
:1015F000849F600D211D822F762F6A2F11249F5703
:1016000050409AF0F1F088234AF0EE0FFF1FBB1F05
:10161000661F771F881F91505040A9F79E3F5105C4
:1016200080F00C94650A0C94B00A5F3FE4F3983E96
:10163000D4F3869577956795B795F795E7959F5F6E
:10164000C1F7FE2B880F911D9695879597F9089500
:101650000E942D0B880B990B0895990F0008550FC8
:10166000AA0BE0E8FEEF16161706E807F907C0F028
:1016700012161306E407F50798F0621B730B840B30
:10168000950B39F40A2661F0232B242B252B21F40A
:1016900008950A2609F4A140A6958FEF811D811DAA
:0616A0000895F894FFCF4D
:0216A600F43F0F
:00000001FF
